{"contracts/ShareCoin.sol":{"ShareCoin":{"abi":[{"inputs":[{"internalType":"address","name":"_paymentToken","type":"address"}],"stateMutability":"nonpayable","type":"constructor"},{"inputs":[{"internalType":"address","name":"spender","type":"address"},{"internalType":"uint256","name":"allowance","type":"uint256"},{"internalType":"uint256","name":"needed","type":"uint256"}],"name":"ERC20InsufficientAllowance","type":"error"},{"inputs":[{"internalType":"address","name":"sender","type":"address"},{"internalType":"uint256","name":"balance","type":"uint256"},{"internalType":"uint256","name":"needed","type":"uint256"}],"name":"ERC20InsufficientBalance","type":"error"},{"inputs":[{"internalType":"address","name":"approver","type":"address"}],"name":"ERC20InvalidApprover","type":"error"},{"inputs":[{"internalType":"address","name":"receiver","type":"address"}],"name":"ERC20InvalidReceiver","type":"error"},{"inputs":[{"internalType":"address","name":"sender","type":"address"}],"name":"ERC20InvalidSender","type":"error"},{"inputs":[{"internalType":"address","name":"spender","type":"address"}],"name":"ERC20InvalidSpender","type":"error"},{"inputs":[{"internalType":"address","name":"owner","type":"address"}],"name":"OwnableInvalidOwner","type":"error"},{"inputs":[{"internalType":"address","name":"account","type":"address"}],"name":"OwnableUnauthorizedAccount","type":"error"},{"inputs":[],"name":"ReentrancyGuardReentrantCall","type":"error"},{"anonymous":false,"inputs":[{"indexed":true,"internalType":"address","name":"owner","type":"address"},{"indexed":true,"internalType":"address","name":"spender","type":"address"},{"indexed":false,"internalType":"uint256","name":"value","type":"uint256"}],"name":"Approval","type":"event"},{"anonymous":false,"inputs":[{"indexed":true,"internalType":"uint256","name":"blockNumber","type":"uint256"},{"indexed":false,"internalType":"bytes32","name":"blockHash","type":"bytes32"},{"indexed":true,"internalType":"address","name":"miner","type":"address"}],"name":"BlockMined","type":"event"},{"anonymous":false,"inputs":[{"indexed":false,"internalType":"uint256","name":"difficulty","type":"uint256"}],"name":"DifficultySet","type":"event"},{"anonymous":false,"inputs":[{"indexed":true,"internalType":"address","name":"user","type":"address"}],"name":"LifetimeSubscriptionPurchased","type":"event"},{"anonymous":false,"inputs":[{"indexed":true,"internalType":"address","name":"previousOwner","type":"address"},{"indexed":true,"internalType":"address","name":"newOwner","type":"address"}],"name":"OwnershipTransferred","type":"event"},{"anonymous":false,"inputs":[{"indexed":true,"internalType":"uint256","name":"blockNumber","type":"uint256"},{"indexed":true,"internalType":"address","name":"miner","type":"address"},{"indexed":false,"internalType":"uint256","name":"reward","type":"uint256"}],"name":"RewardClaimed","type":"event"},{"anonymous":false,"inputs":[{"indexed":true,"internalType":"address","name":"user","type":"address"},{"indexed":false,"internalType":"enum ShareCoin.PlanType","name":"plan","type":"uint8"},{"indexed":false,"internalType":"uint256","name":"expiry","type":"uint256"}],"name":"SubscriptionPurchased","type":"event"},{"anonymous":false,"inputs":[{"indexed":true,"internalType":"address","name":"from","type":"address"},{"indexed":true,"internalType":"address","name":"to","type":"address"},{"indexed":false,"internalType":"uint256","name":"value","type":"uint256"}],"name":"Transfer","type":"event"},{"anonymous":false,"inputs":[{"indexed":false,"internalType":"uint256","name":"amount","type":"uint256"}],"name":"WithdrawnSubscriptionFunds","type":"event"},{"inputs":[],"name":"BLOCK_REWARD","outputs":[{"internalType":"uint256","name":"","type":"uint256"}],"stateMutability":"view","type":"function"},{"inputs":[],"name":"MAX_SUPPLY","outputs":[{"internalType":"uint256","name":"","type":"uint256"}],"stateMutability":"view","type":"function"},{"inputs":[{"internalType":"address","name":"owner","type":"address"},{"internalType":"address","name":"spender","type":"address"}],"name":"allowance","outputs":[{"internalType":"uint256","name":"","type":"uint256"}],"stateMutability":"view","type":"function"},{"inputs":[{"internalType":"address","name":"spender","type":"address"},{"internalType":"uint256","name":"value","type":"uint256"}],"name":"approve","outputs":[{"internalType":"bool","name":"","type":"bool"}],"stateMutability":"nonpayable","type":"function"},{"inputs":[{"internalType":"address","name":"account","type":"address"}],"name":"balanceOf","outputs":[{"internalType":"uint256","name":"","type":"uint256"}],"stateMutability":"view","type":"function"},{"inputs":[],"name":"basicDailyRate","outputs":[{"internalType":"uint256","name":"","type":"uint256"}],"stateMutability":"view","type":"function"},{"inputs":[{"internalType":"address","name":"","type":"address"},{"internalType":"uint256","name":"","type":"uint256"}],"name":"blockAlreadyUsed","outputs":[{"internalType":"bool","name":"","type":"bool"}],"stateMutability":"view","type":"function"},{"inputs":[{"internalType":"uint256","name":"","type":"uint256"}],"name":"blockHistory","outputs":[{"internalType":"uint256","name":"blockNumber","type":"uint256"},{"internalType":"bytes32","name":"blockHash","type":"bytes32"},{"internalType":"address","name":"miner","type":"address"},{"internalType":"uint256","name":"timestamp","type":"uint256"},{"internalType":"bool","name":"claimed","type":"bool"}],"stateMutability":"view","type":"function"},{"inputs":[{"internalType":"uint256[]","name":"indexes","type":"uint256[]"}],"name":"claimMultipleRewards","outputs":[],"stateMutability":"nonpayable","type":"function"},{"inputs":[{"internalType":"uint256","name":"index","type":"uint256"}],"name":"claimReward","outputs":[],"stateMutability":"nonpayable","type":"function"},{"inputs":[],"name":"confirmationThreshold","outputs":[{"internalType":"uint256","name":"","type":"uint256"}],"stateMutability":"view","type":"function"},{"inputs":[],"name":"decimals","outputs":[{"internalType":"uint8","name":"","type":"uint8"}],"stateMutability":"view","type":"function"},{"inputs":[],"name":"defaultDifficulty","outputs":[{"internalType":"uint256","name":"","type":"uint256"}],"stateMutability":"view","type":"function"},{"inputs":[],"name":"getBlockHistoryLength","outputs":[{"internalType":"uint256","name":"","type":"uint256"}],"stateMutability":"view","type":"function"},{"inputs":[{"internalType":"address","name":"user","type":"address"}],"name":"getSubscriptionInfo","outputs":[{"internalType":"enum ShareCoin.PlanType","name":"plan","type":"uint8"},{"internalType":"uint256","name":"expiry","type":"uint256"},{"internalType":"bool","name":"isActive","type":"bool"}],"stateMutability":"view","type":"function"},{"inputs":[],"name":"lifetimeLimit","outputs":[{"internalType":"uint256","name":"","type":"uint256"}],"stateMutability":"view","type":"function"},{"inputs":[],"name":"lifetimePrice","outputs":[{"internalType":"uint256","name":"","type":"uint256"}],"stateMutability":"view","type":"function"},{"inputs":[],"name":"lifetimeSold","outputs":[{"internalType":"uint256","name":"","type":"uint256"}],"stateMutability":"view","type":"function"},{"inputs":[],"name":"name","outputs":[{"internalType":"string","name":"","type":"string"}],"stateMutability":"view","type":"function"},{"inputs":[],"name":"owner","outputs":[{"internalType":"address","name":"","type":"address"}],"stateMutability":"view","type":"function"},{"inputs":[{"internalType":"uint256","name":"amount","type":"uint256"}],"name":"ownerWithdrawSubscriptionFunds","outputs":[],"stateMutability":"nonpayable","type":"function"},{"inputs":[],"name":"paymentToken","outputs":[{"internalType":"contract ERC20","name":"","type":"address"}],"stateMutability":"view","type":"function"},{"inputs":[],"name":"premiumDailyRate","outputs":[{"internalType":"uint256","name":"","type":"uint256"}],"stateMutability":"view","type":"function"},{"inputs":[],"name":"purchaseLifetimeSubscription","outputs":[],"stateMutability":"nonpayable","type":"function"},{"inputs":[{"internalType":"enum ShareCoin.PlanType","name":"plan","type":"uint8"},{"internalType":"uint256","name":"daysCount","type":"uint256"}],"name":"purchaseSubscription","outputs":[],"stateMutability":"nonpayable","type":"function"},{"inputs":[],"name":"renounceOwnership","outputs":[],"stateMutability":"nonpayable","type":"function"},{"inputs":[{"internalType":"address","name":"user","type":"address"},{"internalType":"uint256[]","name":"blockNumbers","type":"uint256[]"},{"internalType":"uint256[]","name":"nonces","type":"uint256[]"}],"name":"serverSubmitMultipleMinedBlocksAndMintOnBehalf","outputs":[],"stateMutability":"nonpayable","type":"function"},{"inputs":[{"internalType":"uint256","name":"newDifficulty","type":"uint256"}],"name":"setDifficulty","outputs":[],"stateMutability":"nonpayable","type":"function"},{"inputs":[],"name":"standardDailyRate","outputs":[{"internalType":"uint256","name":"","type":"uint256"}],"stateMutability":"view","type":"function"},{"inputs":[{"internalType":"uint256","name":"_blockNumber","type":"uint256"},{"internalType":"uint256","name":"nonce","type":"uint256"}],"name":"submitMinedBlock","outputs":[],"stateMutability":"nonpayable","type":"function"},{"inputs":[{"internalType":"uint256[]","name":"blockNumbers","type":"uint256[]"},{"internalType":"uint256[]","name":"nonces","type":"uint256[]"}],"name":"submitMultipleMinedBlocksAndMint","outputs":[],"stateMutability":"nonpayable","type":"function"},{"inputs":[{"internalType":"address","name":"user","type":"address"}],"name":"subscriptionActiveFor","outputs":[{"internalType":"bool","name":"","type":"bool"}],"stateMutability":"view","type":"function"},{"inputs":[{"internalType":"address","name":"","type":"address"}],"name":"subscriptions","outputs":[{"internalType":"uint256","name":"","type":"uint256"}],"stateMutability":"view","type":"function"},{"inputs":[],"name":"symbol","outputs":[{"internalType":"string","name":"","type":"string"}],"stateMutability":"view","type":"function"},{"inputs":[],"name":"tokenLogoURI","outputs":[{"internalType":"string","name":"","type":"string"}],"stateMutability":"view","type":"function"},{"inputs":[],"name":"totalSupply","outputs":[{"internalType":"uint256","name":"","type":"uint256"}],"stateMutability":"view","type":"function"},{"inputs":[{"internalType":"address","name":"to","type":"address"},{"internalType":"uint256","name":"value","type":"uint256"}],"name":"transfer","outputs":[{"internalType":"bool","name":"","type":"bool"}],"stateMutability":"nonpayable","type":"function"},{"inputs":[{"internalType":"address","name":"from","type":"address"},{"internalType":"address","name":"to","type":"address"},{"internalType":"uint256","name":"value","type":"uint256"}],"name":"transferFrom","outputs":[{"internalType":"bool","name":"","type":"bool"}],"stateMutability":"nonpayable","type":"function"},{"inputs":[{"internalType":"address","name":"newOwner","type":"address"}],"name":"transferOwnership","outputs":[],"stateMutability":"nonpayable","type":"function"},{"inputs":[{"internalType":"address","name":"","type":"address"}],"name":"userPlan","outputs":[{"internalType":"enum ShareCoin.PlanType","name":"","type":"uint8"}],"stateMutability":"view","type":"function"}],"evm":{"bytecode":{"linkReferences":{},"object":"6080346200043257601f601f196001600160401b03620023b63881900384810184168601838111878210176200036c578692829160405283396020958691810103126200043257516001600160a01b038082169182900362000432576200006562000437565b92600984526829b430b932a1b7b4b760b91b878501526200008562000437565b9060059586835264534841524560d81b8984015285518281116200036c5780600397620000b3895462000457565b8c8b8d808411620003f5575b505050508b908b83116001146200038e5760009262000382575b50508160011b9160001990891b1c19161786555b82519182116200036c57819060049362000108855462000457565b8b8b82116200032f575b50508a918a8411600114620002c75750600092620002bb575b50508160011b9160001990871b1c19161781555b3315620002a3577f616a733463376e72776c323734767133746673636661336f7263356f636b667a6002888888888888835460018060a01b031991338383161786553391167f8be0079c531659141344cd1fd0a4f28419497f9722a3daafe3b4186f6b6457e0600080a3600160065560006009556000600a556032600d556801158e460913d00000600f5568022b1c8c1227a00000601055680340aad21b3b7000006011556901b1ae4d6e2ef500000060125560075416176007556200020760085462000457565b918383116200027d575b5050505060c160085560086000526000207f68747470733a2f2f726f6f7374696e746865726f6f73742e6d7970696e61746181557f2e636c6f75642f697066732f6261666b7265696464776d7279787a633578643660018201550155604051611f089081620004ae8239f35b62000299936008600052856000209301901c8201910162000494565b8380808062000211565b602490600060405191631e4fbdf760e01b8352820152fd5b0151905038806200012b565b90921691846000528a6000209260005b8c82821062000318575050908460019594939210620002ff575b505050811b0181556200013f565b015160001983891b60f8161c19169055388080620002f1565b6001859682939686015181550195019301620002d7565b6200035a91876000528c82600020918d828901901c830193881062000362575b018c1c019062000494565b388b62000112565b925081926200034f565b634e487b7160e01b600052604160045260246000fd5b015190503880620000d9565b60008a81528d8120938616908e5b828210620003dc575050908460019594939210620003c3575b505050811b018655620000ed565b0151600019838b1b60f8161c19169055388080620003b5565b806001869782949787015181550196019401906200039c565b6200041e938d6000528360002092828801901c830193871062000428575b018d1c019062000494565b388c8b8d620000bf565b9250819262000413565b600080fd5b60408051919082016001600160401b038111838210176200036c57604052565b90600182811c9216801562000489575b60208310146200047357565b634e487b7160e01b600052602260045260246000fd5b91607f169162000467565b818110620004a0575050565b600081556001016200049456fe608060408181526004918236101561001657600080fd5b600092833560e01c91826304593adc14611872575081630515b9b01461185357816306fdde031461179457816307572eac14611775578163095ea7b3146116cb5781630c6d7b8e146116ac57816311479763146115b057816318160ddd1461159157816323266fbd1461154a57816323b872dd14611456578163243d4008146114375781633013ce291461140e578163313ce567146113f257816332cb6b0c146113cc57816350e0cdf414611388578163602512e11461133a5781636d18a84a1461131b57816370a08231146112e4578163715018a614611287578163729d0a8a1461116b5781637f05b9ef146111475781638820a08e146110525781638da5cb5b1461102957816395d89b4114610f26578163a5ee6c3e14610d38578163a9059cbb14610d07578163ae169a5014610c32578163af1966b714610a84578163d4365cd214610a65578163dcf600c114610a46578163dd62ed3e146109fd578163de250ace1461098f578163deb6b46214610948578163eaaa2d97146106e4578163ec74663d14610573578163ed47effd14610336578163f046395a146102fe578163f2fde38b1461026a57508063f804bb0e146101fe5763fceb17eb146101dd57600080fd5b346101fa57816003193601126101fa57602090600a549051908152f35b5080fd5b50346101fa5760203660031901126101fa579060609161021c6118d7565b6001600160a01b0316808352600c602090815282842054600b9091529282902054600091825260409091205460ff9093169242109061025d83518095611908565b6020840152151590820152f35b9050346102fa5760203660031901126102fa576102856118d7565b9061028e611a01565b6001600160a01b039182169283156102e4575050600554826bffffffffffffffffffffffff60a01b821617600555167f8be0079c531659141344cd1fd0a4f28419497f9722a3daafe3b4186f6b6457e08380a380f35b51631e4fbdf760e01b8152908101849052602490fd5b8280fd5b5050346101fa5760203660031901126101fa5760209181906001600160a01b036103266118d7565b168152600b845220549051908152f35b919050346102fa576060908160031936011261056f576103546118d7565b9160249384359267ffffffffffffffff9384811161056b57610379903690840161192b565b95909460443590811161056757610396909695963690850161192b565b9190976103a1611a01565b6103a9611ba1565b6001600160a01b0382166000908152600b60205260409020546103cd904210611be9565b6103d8838814611d04565b6001600160a01b038216968a5b8b8282106103f557600160065580f35b86908c6104c68c888f61049a8761045e8a8f610415828f61048c98611d41565b359b8b898e9d52601460209d8e8281528484209184525261043c60ff848420541615611c2c565b8a82528d528181208e82528d5220805460ff1916600190811790915599611d41565b90518881018a815260609590951b6001600160601b0319166020860152903560348501529182906054850190565b03601f19810183528261198e565b519020928b51916104aa8361195c565b86835284868401528c8301528d42908301526080820152611c6e565b600254906802b5e3af16b188000091828101809111610553579284928e61054e97967f78b896357132952012fed86dedf1bfcfb388a941f2b7f4cb3f270ed3780155ca848f96600080516020611eb3833981519152978f61053e906105396a115eec47f6cf7e35000000899e1115611d51565b611d93565b51908152a38b51908152a3611bc4565b6103e5565b5050634e487b7160e01b8f5260118a52858ffd5b8880fd5b8780fd5b8380fd5b919050346102fa57826003193601126102fa5761058e611ba1565b600e54600d5411156106a857336000908152600b60205260409020546105b79042105b15611b0b565b60075460125482516323b872dd60e01b8152338582019081523060208083019190915260408201939093529092839182900360600190829088906001600160a01b03165af190811561069e5790610615918591610670575b50611b64565b338352600b60205260001981842055600c60205282209060ff19825416179055610640600e54611bc4565b600e55337f352f39a5ab385302b915299f87920512c62062733888ca47b658dceb140886ca8280a2600160065580f35b610691915060203d8111610697575b610689818361198e565b810190611b4c565b3861060f565b503d61067f565b82513d86823e3d90fd5b906020606492519162461bcd60e51b83528201526016602482015275131a59995d1a5b59481b1a5b5a5d081c995858da195960521b6044820152fd5b8383346101fa57806003193601126101fa5782359060058210156102fa57602493843561070f611ba1565b846001851480801561093b575b82811561092b575b50156108fa5782156108c957336000908152600b602052604090205461074b9042106105b1565b86916108b7576108ae575b600285146108a5575b6003851461089c575b818102908082048314901517156108635760075484516323b872dd60e01b8152338582019081523060208281019190915260408201949094529293929091849183916001600160a01b03169082908b90829060600103925af190811561089257906107d99188916108755750611b64565b6201518080820291820403610863574201918242116108515750907fcb1d9e2f1ade80c30cd5a94cc785e4e0fe02c9733ab244988d4a57bd30e712319291338652600b81528183872055600c815282862060ff1981541660ff871617905561084383518096611908565b8401523392a2600160065580f35b634e487b7160e01b8652601190528585fd5b634e487b7160e01b8652601183528686fd5b61088c9150843d861161069757610689818361198e565b8961060f565b85513d89823e3d90fd5b50601154610768565b5060105461075f565b50600f54610756565b634e487b7160e01b8752602184528787fd5b845162461bcd60e51b8152602081860152600c818a01526b64617973436f756e743d303f60a01b6044820152606490fd5b845162461bcd60e51b8152602081860152600c818a01526b24b73b30b634b210383630b760a11b6044820152606490fd5b90506108b7576003861482610724565b508691506002861461071c565b5050346101fa5760203660031901126101fa576020906109866109696118d7565b6001600160a01b03166000908152600b6020526040902054421090565b90519015158152f35b919050346102fa5760203660031901126102fa578135926013548410156109fa57506109bc60a0936119b0565b5080549260018201549260ff600180881b03600285015416926003850154940154169381519586526020860152840152606083015215156080820152f35b80fd5b5050346101fa57806003193601126101fa5780602092610a1b6118d7565b610a236118f2565b6001600160a01b0391821683526001865283832091168252845220549051908152f35b5050346101fa57816003193601126101fa57602090600f549051908152f35b5050346101fa57816003193601126101fa57602090600e549051908152f35b839150346101fa57602090816003193601126102fa57803590610aa5611a01565b60075485516370a0823160e01b815230838201526001600160a01b03909116908481602481855afa908115610c28579084918791610bf3575b5010610bb057838591604488518094819363a9059cbb60e01b835233888401528860248401525af1908115610ba6578591610b89575b5015610b4657507fd0d9606e9ba3933f02a3390fd4d387f26a9a812a6f35be64aa43ac916340cf28929351908152a180f35b845162461bcd60e51b8152908101839052601860248201527f5769746864726177207472616e73666572206661696c656400000000000000006044820152606490fd5b610ba09150843d861161069757610689818361198e565b86610b14565b86513d87823e3d90fd5b855162461bcd60e51b8152808301859052601d60248201527f4e6f7420656e6f75676820737562736372697074696f6e2066756e64730000006044820152606490fd5b809250868092503d8311610c21575b610c0c818361198e565b81010312610c1d5783905188610ade565b8580fd5b503d610c02565b87513d88823e3d90fd5b919050346102fa5760203660031901126102fa57610c658235610c53611ba1565b610c606013548210611dfc565b6119b0565b50610c7d60018060a01b036002830154163314611e38565b8281018054610c8f60ff821615611e74565b6002546802b5e3af16b188000095868201809211610cf4575090610cc26a115eec47f6cf7e350000006001931115611d51565b60ff1916179055610cd233611d93565b549051918252600080516020611eb383398151915260203393a3600160065580f35b634e487b7160e01b885260119052602487fd5b5050346101fa57806003193601126101fa57602090610d31610d276118d7565b6024359033611a2d565b5160018152f35b919050346102fa57806003193601126102fa5767ffffffffffffffff918035838111610f2257610d6b903690830161192b565b9390926024918235908111610f1e57610d87903690850161192b565b95610d90611ba1565b336000908152600b6020526040902054610dab904210611be9565b610db6878214611d04565b875b818110610dc85788600160065580f35b88610dd482848a611d41565b353382526014610df760ff88602095848752818120868252875220541615611c2c565b338c528252858b20818c528252858b20916001928360ff19825416179055610e7f610e23858d89611d41565b88518381018581523360601b6001600160601b031916602082015291356034830152610e52816054840161048c565b51902093885190610e628261195c565b8482528584830152338a8301524260608301526080820152611c6e565b600254926802b5e3af16b188000093848101809111610f0c5791600080516020611eb383398151915291610ec66a115eec47f6cf7e35000000610f07989796951115611d51565b610ecf33611d93565b8951908152837f78b896357132952012fed86dedf1bfcfb388a941f2b7f4cb3f270ed3780155ca833393a388519384523393a3611bc4565b610db8565b634e487b7160e01b8e5260118b52898efd5b8680fd5b8480fd5b8383346101fa57816003193601126101fa57805191809380549160019083821c9282851694851561101f575b602095868610811461100c57858952908115610fe85750600114610f90575b610f8c8787610f82828c038361198e565b519182918261188e565b0390f35b81529295507f8a35acfbc15ff81a39ae7d344fd709f28e8600b4aa8c65c6b64bfe7fe36bd19b5b828410610fd55750505082610f8c94610f8292820101948680610f71565b8054868501880152928601928101610fb7565b60ff19168887015250505050151560051b8301019250610f8282610f8c8680610f71565b634e487b7160e01b845260228352602484fd5b93607f1693610f52565b5050346101fa57816003193601126101fa5760055490516001600160a01b039091168152602090f35b919050346102fa57826003193601126102fa57805191836008549060019082821c92828116801561113d575b602095868610821461112a575084885290811561110857506001146110af575b610f8c8686610f82828b038361198e565b929550600883527ff3f7a9fe364faab93b216da50a3214154f22a0a2b415b23a84c8169e8b636ee35b8284106110f55750505082610f8c94610f8292820101943861109e565b80548685018801529286019281016110d8565b60ff191687860152505050151560051b8301019250610f8282610f8c3861109e565b634e487b7160e01b845260229052602483fd5b93607f169361107e565b5050346101fa57816003193601126101fa57602090516802b5e3af16b18800008152f35b919050346102fa576020908160031936011261056f57823567ffffffffffffffff8111610f225761119f903690850161192b565b6111aa939193611ba1565b855b8181106111bc5786600160065580f35b6111d86111ca828488611d41565b35610c606013548210611dfc565b506002818101549091906111f6906001600160a01b03163314611e38565b87810180549261120960ff851615611e74565b54926802b5e3af16b1880000938481018091116112745761126f95949392916112416a115eec47f6cf7e350000006001931115611d51565b60ff191617905561125133611d93565b548651918252600080516020611eb3833981519152863393a3611bc4565b6111ac565b634e487b7160e01b8c5260118b5260248cfd5b83346109fa57806003193601126109fa576112a0611a01565b600580546001600160a01b0319811690915581906001600160a01b03167f8be0079c531659141344cd1fd0a4f28419497f9722a3daafe3b4186f6b6457e08280a380f35b5050346101fa5760203660031901126101fa5760209181906001600160a01b0361130c6118d7565b16815280845220549051908152f35b5050346101fa57816003193601126101fa576020906013549051908152f35b9050346102fa5760203660031901126102fa577f0c246568fd822c64e52db247444169ef32469ac5f7095dc1069389feb1142dfd91602091359061137c611a01565b8160095551908152a180f35b5050346101fa5760203660031901126101fa576020916113ca9060ff9083906001600160a01b036113b76118d7565b168152600c865220541691518092611908565bf35b5050346101fa57816003193601126101fa57602090516a115eec47f6cf7e350000008152f35b5050346101fa57816003193601126101fa576020905160128152f35b5050346101fa57816003193601126101fa5760075490516001600160a01b039091168152602090f35b5050346101fa57816003193601126101fa57602090600d549051908152f35b905082346109fa5760603660031901126109fa576114726118d7565b61147a6118f2565b916044359360018060a01b0383168083526001602052868320338452602052868320549160001983106114b6575b602088610d31898989611a2d565b86831061151e5781156115075733156114f057508252600160209081528683203384528152918690209085900390558290610d31876114a8565b8751634a1406b160e11b8152908101849052602490fd5b875163e602df0560e01b8152908101849052602490fd5b8751637dc7a0d960e11b8152339181019182526020820193909352604081018790528291506060010390fd5b5050346101fa57806003193601126101fa5760209160ff9082906001600160a01b036115746118d7565b168152601485528181206024358252855220541690519015158152f35b5050346101fa57816003193601126101fa576020906002549051908152f35b9050346102fa57816003193601126102fa57336000908152600b60205260409020549035906115e0904210611be9565b3383527f78b896357132952012fed86dedf1bfcfb388a941f2b7f4cb3f270ed3780155ca602060148152838520838652815261162260ff858720541615611c2c565b33808652601482528486208487528252848620805460ff19166001179055845180830185815260609290921b6001600160601b03191660208301526024356034830152611672816054840161048c565b519020936116a281516116848161195c565b85815286848201523383820152426060820152876080820152611c6e565b519384523393a380f35b5050346101fa57816003193601126101fa576020906012549051908152f35b9050346102fa57816003193601126102fa576116e56118d7565b60243590331561175e576001600160a01b031691821561174757508083602095338152600187528181208582528752205582519081527f8c5be1e5ebec7d5bd14f71427d1e84f3dd0314c0f7b2291e5b200ac8c7c3b925843392a35160018152f35b8351634a1406b160e11b8152908101859052602490fd5b835163e602df0560e01b8152808401869052602490fd5b5050346101fa57816003193601126101fa576020906010549051908152f35b919050346102fa57826003193601126102fa57805191836003549060019082821c928281168015611849575b602095868610821461112a575084885290811561110857506001146117f057610f8c8686610f82828b038361198e565b929550600383527fc2575a0e9e593c00f959f8c92f12db2869c3395a3b0502d05e2516446f71f85b5b8284106118365750505082610f8c94610f8292820101943861109e565b8054868501880152928601928101611819565b93607f16936117c0565b5050346101fa57816003193601126101fa576020906011549051908152f35b8490346101fa57816003193601126101fa576020906009548152f35b6020808252825181830181905290939260005b8281106118c357505060409293506000838284010152601f8019910116010190565b8181018601518482016040015285016118a1565b600435906001600160a01b03821682036118ed57565b600080fd5b602435906001600160a01b03821682036118ed57565b9060058210156119155752565b634e487b7160e01b600052602160045260246000fd5b9181601f840112156118ed5782359167ffffffffffffffff83116118ed576020808501948460051b0101116118ed57565b60a0810190811067ffffffffffffffff82111761197857604052565b634e487b7160e01b600052604160045260246000fd5b90601f8019910116810190811067ffffffffffffffff82111761197857604052565b6013548110156119eb576005906013600052027f66de8ffda797e3de9c05e8fc57b3bf0ec28a930d40b0d285d93c06501cf6a0900190600090565b634e487b7160e01b600052603260045260246000fd5b6005546001600160a01b03163303611a1557565b60405163118cdaa760e01b8152336004820152602490fd5b916001600160a01b03808416928315611af25716928315611ad95760009083825281602052604082205490838210611aa7575091604082827fddf252ad1be2c89b69c2b068fc378daa952ba7f163c4a11628f55a4df523b3ef958760209652828652038282205586815220818154019055604051908152a3565b60405163391434e360e21b81526001600160a01b03919091166004820152602481019190915260448101839052606490fd5b60405163ec442f0560e01b815260006004820152602490fd5b604051634b637e8f60e11b815260006004820152602490fd5b15611b1257565b60405162461bcd60e51b8152602060048201526012602482015271105b1c9958591e481cdd589cd8dc9a58995960721b6044820152606490fd5b908160209103126118ed575180151581036118ed5790565b15611b6b57565b60405162461bcd60e51b815260206004820152600e60248201526d14185e5b595b9d0819985a5b195960921b6044820152606490fd5b600260065414611bb2576002600655565b604051633ee5aeb560e01b8152600490fd5b6000198114611bd35760010190565b634e487b7160e01b600052601160045260246000fd5b15611bf057565b60405162461bcd60e51b815260206004820152601460248201527314dd589cd8dc9a5c1d1a5bdb88195e1c1a5c995960621b6044820152606490fd5b15611c3357565b60405162461bcd60e51b8152602060048201526013602482015272426c6f636b20616c726561647920757365642160681b6044820152606490fd5b6013546801000000000000000081101561197857806001611c9292016013556119b0565b611cee57600460809183518155602084015160018201556002810160018060a01b036040860151166bffffffffffffffffffffffff60a01b8254161790556060840151600382015501910151151560ff80198354169116179055565b634e487b7160e01b600052600060045260246000fd5b15611d0b57565b60405162461bcd60e51b815260206004820152600e60248201526d082e4e4c2f240dad2e6dac2e8c6d60931b6044820152606490fd5b91908110156119eb5760051b0190565b15611d5857565b60405162461bcd60e51b815260206004820152601360248201527213585e081cdd5c1c1b1e48195e18d959591959606a1b6044820152606490fd5b6001600160a01b03168015611ad9576002546802b5e3af16b1880000808201809211611bd35760207fddf252ad1be2c89b69c2b068fc378daa952ba7f163c4a11628f55a4df523b3ef9160009360025584845283825260408420818154019055604051908152a3565b15611e0357565b60405162461bcd60e51b815260206004820152600d60248201526c092dcecc2d8d2c840d2dcc8caf609b1b6044820152606490fd5b15611e3f57565b60405162461bcd60e51b815260206004820152600d60248201526c2737ba103a34329036b4b732b960991b6044820152606490fd5b15611e7b57565b60405162461bcd60e51b815260206004820152600f60248201526e105b1c9958591e4818db185a5b5959608a1b6044820152606490fdfe24b5efa61dd1cfc659205a97fb8ed868f3cb8c81922bab2b96423e5de1de2cb7a26469706673582212203004d285940383a959ea3e33b205135633d6b1f7f88bd7512b40b737fccfca2d64736f6c63430008140033","opcodes":"PUSH1 0x80 CALLVALUE PUSH3 0x432 JUMPI PUSH1 0x1F PUSH1 0x1F NOT PUSH1 0x1 PUSH1 0x1 PUSH1 0x40 SHL SUB PUSH3 0x23B6 CODESIZE DUP2 SWAP1 SUB DUP5 DUP2 ADD DUP5 AND DUP7 ADD DUP4 DUP2 GT DUP8 DUP3 LT OR PUSH3 0x36C JUMPI DUP7 SWAP3 DUP3 SWAP2 PUSH1 0x40 MSTORE DUP4 CODECOPY PUSH1 0x20 SWAP6 DUP7 SWAP2 DUP2 ADD SUB SLT PUSH3 0x432 JUMPI MLOAD PUSH1 0x1 PUSH1 0x1 PUSH1 0xA0 SHL SUB DUP1 DUP3 AND SWAP2 DUP3 SWAP1 SUB PUSH3 0x432 JUMPI PUSH3 0x65 PUSH3 0x437 JUMP JUMPDEST SWAP3 PUSH1 0x9 DUP5 MSTORE PUSH9 0x29B430B932A1B7B4B7 PUSH1 0xB9 SHL DUP8 DUP6 ADD MSTORE PUSH3 0x85 PUSH3 0x437 JUMP JUMPDEST SWAP1 PUSH1 0x5 SWAP6 DUP7 DUP4 MSTORE PUSH5 0x5348415245 PUSH1 0xD8 SHL DUP10 DUP5 ADD MSTORE DUP6 MLOAD DUP3 DUP2 GT PUSH3 0x36C JUMPI DUP1 PUSH1 0x3 SWAP8 PUSH3 0xB3 DUP10 SLOAD PUSH3 0x457 JUMP JUMPDEST DUP13 DUP12 DUP14 DUP1 DUP5 GT PUSH3 0x3F5 JUMPI JUMPDEST POP POP POP POP DUP12 SWAP1 DUP12 DUP4 GT PUSH1 0x1 EQ PUSH3 0x38E JUMPI PUSH1 0x0 SWAP3 PUSH3 0x382 JUMPI JUMPDEST POP POP DUP2 PUSH1 0x1 SHL SWAP2 PUSH1 0x0 NOT SWAP1 DUP10 SHL SHR NOT AND OR DUP7 SSTORE JUMPDEST DUP3 MLOAD SWAP2 DUP3 GT PUSH3 0x36C JUMPI DUP2 SWAP1 PUSH1 0x4 SWAP4 PUSH3 0x108 DUP6 SLOAD PUSH3 0x457 JUMP JUMPDEST DUP12 DUP12 DUP3 GT PUSH3 0x32F JUMPI JUMPDEST POP POP DUP11 SWAP2 DUP11 DUP5 GT PUSH1 0x1 EQ PUSH3 0x2C7 JUMPI POP PUSH1 0x0 SWAP3 PUSH3 0x2BB JUMPI JUMPDEST POP POP DUP2 PUSH1 0x1 SHL SWAP2 PUSH1 0x0 NOT SWAP1 DUP8 SHL SHR NOT AND OR DUP2 SSTORE JUMPDEST CALLER ISZERO PUSH3 0x2A3 JUMPI PUSH32 0x616A733463376E72776C323734767133746673636661336F7263356F636B667A PUSH1 0x2 DUP9 DUP9 DUP9 DUP9 DUP9 DUP9 DUP4 SLOAD PUSH1 0x1 DUP1 PUSH1 0xA0 SHL SUB NOT SWAP2 CALLER DUP4 DUP4 AND OR DUP7 SSTORE CALLER SWAP2 AND PUSH32 0x8BE0079C531659141344CD1FD0A4F28419497F9722A3DAAFE3B4186F6B6457E0 PUSH1 0x0 DUP1 LOG3 PUSH1 0x1 PUSH1 0x6 SSTORE PUSH1 0x0 PUSH1 0x9 SSTORE PUSH1 0x0 PUSH1 0xA SSTORE PUSH1 0x32 PUSH1 0xD SSTORE PUSH9 0x1158E460913D00000 PUSH1 0xF SSTORE PUSH9 0x22B1C8C1227A00000 PUSH1 0x10 SSTORE PUSH9 0x340AAD21B3B700000 PUSH1 0x11 SSTORE PUSH10 0x1B1AE4D6E2EF5000000 PUSH1 0x12 SSTORE PUSH1 0x7 SLOAD AND OR PUSH1 0x7 SSTORE PUSH3 0x207 PUSH1 0x8 SLOAD PUSH3 0x457 JUMP JUMPDEST SWAP2 DUP4 DUP4 GT PUSH3 0x27D JUMPI JUMPDEST POP POP POP POP PUSH1 0xC1 PUSH1 0x8 SSTORE PUSH1 0x8 PUSH1 0x0 MSTORE PUSH1 0x0 KECCAK256 PUSH32 0x68747470733A2F2F726F6F7374696E746865726F6F73742E6D7970696E617461 DUP2 SSTORE PUSH32 0x2E636C6F75642F697066732F6261666B7265696464776D7279787A6335786436 PUSH1 0x1 DUP3 ADD SSTORE ADD SSTORE PUSH1 0x40 MLOAD PUSH2 0x1F08 SWAP1 DUP2 PUSH3 0x4AE DUP3 CODECOPY RETURN JUMPDEST PUSH3 0x299 SWAP4 PUSH1 0x8 PUSH1 0x0 MSTORE DUP6 PUSH1 0x0 KECCAK256 SWAP4 ADD SWAP1 SHR DUP3 ADD SWAP2 ADD PUSH3 0x494 JUMP JUMPDEST DUP4 DUP1 DUP1 DUP1 PUSH3 0x211 JUMP JUMPDEST PUSH1 0x24 SWAP1 PUSH1 0x0 PUSH1 0x40 MLOAD SWAP2 PUSH4 0x1E4FBDF7 PUSH1 0xE0 SHL DUP4 MSTORE DUP3 ADD MSTORE REVERT JUMPDEST ADD MLOAD SWAP1 POP CODESIZE DUP1 PUSH3 0x12B JUMP JUMPDEST SWAP1 SWAP3 AND SWAP2 DUP5 PUSH1 0x0 MSTORE DUP11 PUSH1 0x0 KECCAK256 SWAP3 PUSH1 0x0 JUMPDEST DUP13 DUP3 DUP3 LT PUSH3 0x318 JUMPI POP POP SWAP1 DUP5 PUSH1 0x1 SWAP6 SWAP5 SWAP4 SWAP3 LT PUSH3 0x2FF JUMPI JUMPDEST POP POP POP DUP2 SHL ADD DUP2 SSTORE PUSH3 0x13F JUMP JUMPDEST ADD MLOAD PUSH1 0x0 NOT DUP4 DUP10 SHL PUSH1 0xF8 AND SHR NOT AND SWAP1 SSTORE CODESIZE DUP1 DUP1 PUSH3 0x2F1 JUMP JUMPDEST PUSH1 0x1 DUP6 SWAP7 DUP3 SWAP4 SWAP7 DUP7 ADD MLOAD DUP2 SSTORE ADD SWAP6 ADD SWAP4 ADD PUSH3 0x2D7 JUMP JUMPDEST PUSH3 0x35A SWAP2 DUP8 PUSH1 0x0 MSTORE DUP13 DUP3 PUSH1 0x0 KECCAK256 SWAP2 DUP14 DUP3 DUP10 ADD SWAP1 SHR DUP4 ADD SWAP4 DUP9 LT PUSH3 0x362 JUMPI JUMPDEST ADD DUP13 SHR ADD SWAP1 PUSH3 0x494 JUMP JUMPDEST CODESIZE DUP12 PUSH3 0x112 JUMP JUMPDEST SWAP3 POP DUP2 SWAP3 PUSH3 0x34F JUMP JUMPDEST PUSH4 0x4E487B71 PUSH1 0xE0 SHL PUSH1 0x0 MSTORE PUSH1 0x41 PUSH1 0x4 MSTORE PUSH1 0x24 PUSH1 0x0 REVERT JUMPDEST ADD MLOAD SWAP1 POP CODESIZE DUP1 PUSH3 0xD9 JUMP JUMPDEST PUSH1 0x0 DUP11 DUP2 MSTORE DUP14 DUP2 KECCAK256 SWAP4 DUP7 AND SWAP1 DUP15 JUMPDEST DUP3 DUP3 LT PUSH3 0x3DC JUMPI POP POP SWAP1 DUP5 PUSH1 0x1 SWAP6 SWAP5 SWAP4 SWAP3 LT PUSH3 0x3C3 JUMPI JUMPDEST POP POP POP DUP2 SHL ADD DUP7 SSTORE PUSH3 0xED JUMP JUMPDEST ADD MLOAD PUSH1 0x0 NOT DUP4 DUP12 SHL PUSH1 0xF8 AND SHR NOT AND SWAP1 SSTORE CODESIZE DUP1 DUP1 PUSH3 0x3B5 JUMP JUMPDEST DUP1 PUSH1 0x1 DUP7 SWAP8 DUP3 SWAP5 SWAP8 DUP8 ADD MLOAD DUP2 SSTORE ADD SWAP7 ADD SWAP5 ADD SWAP1 PUSH3 0x39C JUMP JUMPDEST PUSH3 0x41E SWAP4 DUP14 PUSH1 0x0 MSTORE DUP4 PUSH1 0x0 KECCAK256 SWAP3 DUP3 DUP9 ADD SWAP1 SHR DUP4 ADD SWAP4 DUP8 LT PUSH3 0x428 JUMPI JUMPDEST ADD DUP14 SHR ADD SWAP1 PUSH3 0x494 JUMP JUMPDEST CODESIZE DUP13 DUP12 DUP14 PUSH3 0xBF JUMP JUMPDEST SWAP3 POP DUP2 SWAP3 PUSH3 0x413 JUMP JUMPDEST PUSH1 0x0 DUP1 REVERT JUMPDEST PUSH1 0x40 DUP1 MLOAD SWAP2 SWAP1 DUP3 ADD PUSH1 0x1 PUSH1 0x1 PUSH1 0x40 SHL SUB DUP2 GT DUP4 DUP3 LT OR PUSH3 0x36C JUMPI PUSH1 0x40 MSTORE JUMP JUMPDEST SWAP1 PUSH1 0x1 DUP3 DUP2 SHR SWAP3 AND DUP1 ISZERO PUSH3 0x489 JUMPI JUMPDEST PUSH1 0x20 DUP4 LT EQ PUSH3 0x473 JUMPI JUMP JUMPDEST PUSH4 0x4E487B71 PUSH1 0xE0 SHL PUSH1 0x0 MSTORE PUSH1 0x22 PUSH1 0x4 MSTORE PUSH1 0x24 PUSH1 0x0 REVERT JUMPDEST SWAP2 PUSH1 0x7F AND SWAP2 PUSH3 0x467 JUMP JUMPDEST DUP2 DUP2 LT PUSH3 0x4A0 JUMPI POP POP JUMP JUMPDEST PUSH1 0x0 DUP2 SSTORE PUSH1 0x1 ADD PUSH3 0x494 JUMP INVALID PUSH1 0x80 PUSH1 0x40 DUP2 DUP2 MSTORE PUSH1 0x4 SWAP2 DUP3 CALLDATASIZE LT ISZERO PUSH2 0x16 JUMPI PUSH1 0x0 DUP1 REVERT JUMPDEST PUSH1 0x0 SWAP3 DUP4 CALLDATALOAD PUSH1 0xE0 SHR SWAP2 DUP3 PUSH4 0x4593ADC EQ PUSH2 0x1872 JUMPI POP DUP2 PUSH4 0x515B9B0 EQ PUSH2 0x1853 JUMPI DUP2 PUSH4 0x6FDDE03 EQ PUSH2 0x1794 JUMPI DUP2 PUSH4 0x7572EAC EQ PUSH2 0x1775 JUMPI DUP2 PUSH4 0x95EA7B3 EQ PUSH2 0x16CB JUMPI DUP2 PUSH4 0xC6D7B8E EQ PUSH2 0x16AC JUMPI DUP2 PUSH4 0x11479763 EQ PUSH2 0x15B0 JUMPI DUP2 PUSH4 0x18160DDD EQ PUSH2 0x1591 JUMPI DUP2 PUSH4 0x23266FBD EQ PUSH2 0x154A JUMPI DUP2 PUSH4 0x23B872DD EQ PUSH2 0x1456 JUMPI DUP2 PUSH4 0x243D4008 EQ PUSH2 0x1437 JUMPI DUP2 PUSH4 0x3013CE29 EQ PUSH2 0x140E JUMPI DUP2 PUSH4 0x313CE567 EQ PUSH2 0x13F2 JUMPI DUP2 PUSH4 0x32CB6B0C EQ PUSH2 0x13CC JUMPI DUP2 PUSH4 0x50E0CDF4 EQ PUSH2 0x1388 JUMPI DUP2 PUSH4 0x602512E1 EQ PUSH2 0x133A JUMPI DUP2 PUSH4 0x6D18A84A EQ PUSH2 0x131B JUMPI DUP2 PUSH4 0x70A08231 EQ PUSH2 0x12E4 JUMPI DUP2 PUSH4 0x715018A6 EQ PUSH2 0x1287 JUMPI DUP2 PUSH4 0x729D0A8A EQ PUSH2 0x116B JUMPI DUP2 PUSH4 0x7F05B9EF EQ PUSH2 0x1147 JUMPI DUP2 PUSH4 0x8820A08E EQ PUSH2 0x1052 JUMPI DUP2 PUSH4 0x8DA5CB5B EQ PUSH2 0x1029 JUMPI DUP2 PUSH4 0x95D89B41 EQ PUSH2 0xF26 JUMPI DUP2 PUSH4 0xA5EE6C3E EQ PUSH2 0xD38 JUMPI DUP2 PUSH4 0xA9059CBB EQ PUSH2 0xD07 JUMPI DUP2 PUSH4 0xAE169A50 EQ PUSH2 0xC32 JUMPI DUP2 PUSH4 0xAF1966B7 EQ PUSH2 0xA84 JUMPI DUP2 PUSH4 0xD4365CD2 EQ PUSH2 0xA65 JUMPI DUP2 PUSH4 0xDCF600C1 EQ PUSH2 0xA46 JUMPI DUP2 PUSH4 0xDD62ED3E EQ PUSH2 0x9FD JUMPI DUP2 PUSH4 0xDE250ACE EQ PUSH2 0x98F JUMPI DUP2 PUSH4 0xDEB6B462 EQ PUSH2 0x948 JUMPI DUP2 PUSH4 0xEAAA2D97 EQ PUSH2 0x6E4 JUMPI DUP2 PUSH4 0xEC74663D EQ PUSH2 0x573 JUMPI DUP2 PUSH4 0xED47EFFD EQ PUSH2 0x336 JUMPI DUP2 PUSH4 0xF046395A EQ PUSH2 0x2FE JUMPI DUP2 PUSH4 0xF2FDE38B EQ PUSH2 0x26A JUMPI POP DUP1 PUSH4 0xF804BB0E EQ PUSH2 0x1FE JUMPI PUSH4 0xFCEB17EB EQ PUSH2 0x1DD JUMPI PUSH1 0x0 DUP1 REVERT JUMPDEST CALLVALUE PUSH2 0x1FA JUMPI DUP2 PUSH1 0x3 NOT CALLDATASIZE ADD SLT PUSH2 0x1FA JUMPI PUSH1 0x20 SWAP1 PUSH1 0xA SLOAD SWAP1 MLOAD SWAP1 DUP2 MSTORE RETURN JUMPDEST POP DUP1 REVERT JUMPDEST POP CALLVALUE PUSH2 0x1FA JUMPI PUSH1 0x20 CALLDATASIZE PUSH1 0x3 NOT ADD SLT PUSH2 0x1FA JUMPI SWAP1 PUSH1 0x60 SWAP2 PUSH2 0x21C PUSH2 0x18D7 JUMP JUMPDEST PUSH1 0x1 PUSH1 0x1 PUSH1 0xA0 SHL SUB AND DUP1 DUP4 MSTORE PUSH1 0xC PUSH1 0x20 SWAP1 DUP2 MSTORE DUP3 DUP5 KECCAK256 SLOAD PUSH1 0xB SWAP1 SWAP2 MSTORE SWAP3 DUP3 SWAP1 KECCAK256 SLOAD PUSH1 0x0 SWAP2 DUP3 MSTORE PUSH1 0x40 SWAP1 SWAP2 KECCAK256 SLOAD PUSH1 0xFF SWAP1 SWAP4 AND SWAP3 TIMESTAMP LT SWAP1 PUSH2 0x25D DUP4 MLOAD DUP1 SWAP6 PUSH2 0x1908 JUMP JUMPDEST PUSH1 0x20 DUP5 ADD MSTORE ISZERO ISZERO SWAP1 DUP3 ADD MSTORE RETURN JUMPDEST SWAP1 POP CALLVALUE PUSH2 0x2FA JUMPI PUSH1 0x20 CALLDATASIZE PUSH1 0x3 NOT ADD SLT PUSH2 0x2FA JUMPI PUSH2 0x285 PUSH2 0x18D7 JUMP JUMPDEST SWAP1 PUSH2 0x28E PUSH2 0x1A01 JUMP JUMPDEST PUSH1 0x1 PUSH1 0x1 PUSH1 0xA0 SHL SUB SWAP2 DUP3 AND SWAP3 DUP4 ISZERO PUSH2 0x2E4 JUMPI POP POP PUSH1 0x5 SLOAD DUP3 PUSH12 0xFFFFFFFFFFFFFFFFFFFFFFFF PUSH1 0xA0 SHL DUP3 AND OR PUSH1 0x5 SSTORE AND PUSH32 0x8BE0079C531659141344CD1FD0A4F28419497F9722A3DAAFE3B4186F6B6457E0 DUP4 DUP1 LOG3 DUP1 RETURN JUMPDEST MLOAD PUSH4 0x1E4FBDF7 PUSH1 0xE0 SHL DUP2 MSTORE SWAP1 DUP2 ADD DUP5 SWAP1 MSTORE PUSH1 0x24 SWAP1 REVERT JUMPDEST DUP3 DUP1 REVERT JUMPDEST POP POP CALLVALUE PUSH2 0x1FA JUMPI PUSH1 0x20 CALLDATASIZE PUSH1 0x3 NOT ADD SLT PUSH2 0x1FA JUMPI PUSH1 0x20 SWAP2 DUP2 SWAP1 PUSH1 0x1 PUSH1 0x1 PUSH1 0xA0 SHL SUB PUSH2 0x326 PUSH2 0x18D7 JUMP JUMPDEST AND DUP2 MSTORE PUSH1 0xB DUP5 MSTORE KECCAK256 SLOAD SWAP1 MLOAD SWAP1 DUP2 MSTORE RETURN JUMPDEST SWAP2 SWAP1 POP CALLVALUE PUSH2 0x2FA JUMPI PUSH1 0x60 SWAP1 DUP2 PUSH1 0x3 NOT CALLDATASIZE ADD SLT PUSH2 0x56F JUMPI PUSH2 0x354 PUSH2 0x18D7 JUMP JUMPDEST SWAP2 PUSH1 0x24 SWAP4 DUP5 CALLDATALOAD SWAP3 PUSH8 0xFFFFFFFFFFFFFFFF SWAP4 DUP5 DUP2 GT PUSH2 0x56B JUMPI PUSH2 0x379 SWAP1 CALLDATASIZE SWAP1 DUP5 ADD PUSH2 0x192B JUMP JUMPDEST SWAP6 SWAP1 SWAP5 PUSH1 0x44 CALLDATALOAD SWAP1 DUP2 GT PUSH2 0x567 JUMPI PUSH2 0x396 SWAP1 SWAP7 SWAP6 SWAP7 CALLDATASIZE SWAP1 DUP6 ADD PUSH2 0x192B JUMP JUMPDEST SWAP2 SWAP1 SWAP8 PUSH2 0x3A1 PUSH2 0x1A01 JUMP JUMPDEST PUSH2 0x3A9 PUSH2 0x1BA1 JUMP JUMPDEST PUSH1 0x1 PUSH1 0x1 PUSH1 0xA0 SHL SUB DUP3 AND PUSH1 0x0 SWAP1 DUP2 MSTORE PUSH1 0xB PUSH1 0x20 MSTORE PUSH1 0x40 SWAP1 KECCAK256 SLOAD PUSH2 0x3CD SWAP1 TIMESTAMP LT PUSH2 0x1BE9 JUMP JUMPDEST PUSH2 0x3D8 DUP4 DUP9 EQ PUSH2 0x1D04 JUMP JUMPDEST PUSH1 0x1 PUSH1 0x1 PUSH1 0xA0 SHL SUB DUP3 AND SWAP7 DUP11 JUMPDEST DUP12 DUP3 DUP3 LT PUSH2 0x3F5 JUMPI PUSH1 0x1 PUSH1 0x6 SSTORE DUP1 RETURN JUMPDEST DUP7 SWAP1 DUP13 PUSH2 0x4C6 DUP13 DUP9 DUP16 PUSH2 0x49A DUP8 PUSH2 0x45E DUP11 DUP16 PUSH2 0x415 DUP3 DUP16 PUSH2 0x48C SWAP9 PUSH2 0x1D41 JUMP JUMPDEST CALLDATALOAD SWAP12 DUP12 DUP10 DUP15 SWAP14 MSTORE PUSH1 0x14 PUSH1 0x20 SWAP14 DUP15 DUP3 DUP2 MSTORE DUP5 DUP5 KECCAK256 SWAP2 DUP5 MSTORE MSTORE PUSH2 0x43C PUSH1 0xFF DUP5 DUP5 KECCAK256 SLOAD AND ISZERO PUSH2 0x1C2C JUMP JUMPDEST DUP11 DUP3 MSTORE DUP14 MSTORE DUP2 DUP2 KECCAK256 DUP15 DUP3 MSTORE DUP14 MSTORE KECCAK256 DUP1 SLOAD PUSH1 0xFF NOT AND PUSH1 0x1 SWAP1 DUP2 OR SWAP1 SWAP2 SSTORE SWAP10 PUSH2 0x1D41 JUMP JUMPDEST SWAP1 MLOAD DUP9 DUP2 ADD DUP11 DUP2 MSTORE PUSH1 0x60 SWAP6 SWAP1 SWAP6 SHL PUSH1 0x1 PUSH1 0x1 PUSH1 0x60 SHL SUB NOT AND PUSH1 0x20 DUP7 ADD MSTORE SWAP1 CALLDATALOAD PUSH1 0x34 DUP6 ADD MSTORE SWAP2 DUP3 SWAP1 PUSH1 0x54 DUP6 ADD SWAP1 JUMP JUMPDEST SUB PUSH1 0x1F NOT DUP2 ADD DUP4 MSTORE DUP3 PUSH2 0x198E JUMP JUMPDEST MLOAD SWAP1 KECCAK256 SWAP3 DUP12 MLOAD SWAP2 PUSH2 0x4AA DUP4 PUSH2 0x195C JUMP JUMPDEST DUP7 DUP4 MSTORE DUP5 DUP7 DUP5 ADD MSTORE DUP13 DUP4 ADD MSTORE DUP14 TIMESTAMP SWAP1 DUP4 ADD MSTORE PUSH1 0x80 DUP3 ADD MSTORE PUSH2 0x1C6E JUMP JUMPDEST PUSH1 0x2 SLOAD SWAP1 PUSH9 0x2B5E3AF16B1880000 SWAP2 DUP3 DUP2 ADD DUP1 SWAP2 GT PUSH2 0x553 JUMPI SWAP3 DUP5 SWAP3 DUP15 PUSH2 0x54E SWAP8 SWAP7 PUSH32 0x78B896357132952012FED86DEDF1BFCFB388A941F2B7F4CB3F270ED3780155CA DUP5 DUP16 SWAP7 PUSH1 0x0 DUP1 MLOAD PUSH1 0x20 PUSH2 0x1EB3 DUP4 CODECOPY DUP2 MLOAD SWAP2 MSTORE SWAP8 DUP16 PUSH2 0x53E SWAP1 PUSH2 0x539 PUSH11 0x115EEC47F6CF7E35000000 DUP10 SWAP15 GT ISZERO PUSH2 0x1D51 JUMP JUMPDEST PUSH2 0x1D93 JUMP JUMPDEST MLOAD SWAP1 DUP2 MSTORE LOG3 DUP12 MLOAD SWAP1 DUP2 MSTORE LOG3 PUSH2 0x1BC4 JUMP JUMPDEST PUSH2 0x3E5 JUMP JUMPDEST POP POP PUSH4 0x4E487B71 PUSH1 0xE0 SHL DUP16 MSTORE PUSH1 0x11 DUP11 MSTORE DUP6 DUP16 REVERT JUMPDEST DUP9 DUP1 REVERT JUMPDEST DUP8 DUP1 REVERT JUMPDEST DUP4 DUP1 REVERT JUMPDEST SWAP2 SWAP1 POP CALLVALUE PUSH2 0x2FA JUMPI DUP3 PUSH1 0x3 NOT CALLDATASIZE ADD SLT PUSH2 0x2FA JUMPI PUSH2 0x58E PUSH2 0x1BA1 JUMP JUMPDEST PUSH1 0xE SLOAD PUSH1 0xD SLOAD GT ISZERO PUSH2 0x6A8 JUMPI CALLER PUSH1 0x0 SWAP1 DUP2 MSTORE PUSH1 0xB PUSH1 0x20 MSTORE PUSH1 0x40 SWAP1 KECCAK256 SLOAD PUSH2 0x5B7 SWAP1 TIMESTAMP LT JUMPDEST ISZERO PUSH2 0x1B0B JUMP JUMPDEST PUSH1 0x7 SLOAD PUSH1 0x12 SLOAD DUP3 MLOAD PUSH4 0x23B872DD PUSH1 0xE0 SHL DUP2 MSTORE CALLER DUP6 DUP3 ADD SWAP1 DUP2 MSTORE ADDRESS PUSH1 0x20 DUP1 DUP4 ADD SWAP2 SWAP1 SWAP2 MSTORE PUSH1 0x40 DUP3 ADD SWAP4 SWAP1 SWAP4 MSTORE SWAP1 SWAP3 DUP4 SWAP2 DUP3 SWAP1 SUB PUSH1 0x60 ADD SWAP1 DUP3 SWAP1 DUP9 SWAP1 PUSH1 0x1 PUSH1 0x1 PUSH1 0xA0 SHL SUB AND GAS CALL SWAP1 DUP2 ISZERO PUSH2 0x69E JUMPI SWAP1 PUSH2 0x615 SWAP2 DUP6 SWAP2 PUSH2 0x670 JUMPI JUMPDEST POP PUSH2 0x1B64 JUMP JUMPDEST CALLER DUP4 MSTORE PUSH1 0xB PUSH1 0x20 MSTORE PUSH1 0x0 NOT DUP2 DUP5 KECCAK256 SSTORE PUSH1 0xC PUSH1 0x20 MSTORE DUP3 KECCAK256 SWAP1 PUSH1 0xFF NOT DUP3 SLOAD AND OR SWAP1 SSTORE PUSH2 0x640 PUSH1 0xE SLOAD PUSH2 0x1BC4 JUMP JUMPDEST PUSH1 0xE SSTORE CALLER PUSH32 0x352F39A5AB385302B915299F87920512C62062733888CA47B658DCEB140886CA DUP3 DUP1 LOG2 PUSH1 0x1 PUSH1 0x6 SSTORE DUP1 RETURN JUMPDEST PUSH2 0x691 SWAP2 POP PUSH1 0x20 RETURNDATASIZE DUP2 GT PUSH2 0x697 JUMPI JUMPDEST PUSH2 0x689 DUP2 DUP4 PUSH2 0x198E JUMP JUMPDEST DUP2 ADD SWAP1 PUSH2 0x1B4C JUMP JUMPDEST CODESIZE PUSH2 0x60F JUMP JUMPDEST POP RETURNDATASIZE PUSH2 0x67F JUMP JUMPDEST DUP3 MLOAD RETURNDATASIZE DUP7 DUP3 RETURNDATACOPY RETURNDATASIZE SWAP1 REVERT JUMPDEST SWAP1 PUSH1 0x20 PUSH1 0x64 SWAP3 MLOAD SWAP2 PUSH3 0x461BCD PUSH1 0xE5 SHL DUP4 MSTORE DUP3 ADD MSTORE PUSH1 0x16 PUSH1 0x24 DUP3 ADD MSTORE PUSH22 0x131A59995D1A5B59481B1A5B5A5D081C995858DA1959 PUSH1 0x52 SHL PUSH1 0x44 DUP3 ADD MSTORE REVERT JUMPDEST DUP4 DUP4 CALLVALUE PUSH2 0x1FA JUMPI DUP1 PUSH1 0x3 NOT CALLDATASIZE ADD SLT PUSH2 0x1FA JUMPI DUP3 CALLDATALOAD SWAP1 PUSH1 0x5 DUP3 LT ISZERO PUSH2 0x2FA JUMPI PUSH1 0x24 SWAP4 DUP5 CALLDATALOAD PUSH2 0x70F PUSH2 0x1BA1 JUMP JUMPDEST DUP5 PUSH1 0x1 DUP6 EQ DUP1 DUP1 ISZERO PUSH2 0x93B JUMPI JUMPDEST DUP3 DUP2 ISZERO PUSH2 0x92B JUMPI JUMPDEST POP ISZERO PUSH2 0x8FA JUMPI DUP3 ISZERO PUSH2 0x8C9 JUMPI CALLER PUSH1 0x0 SWAP1 DUP2 MSTORE PUSH1 0xB PUSH1 0x20 MSTORE PUSH1 0x40 SWAP1 KECCAK256 SLOAD PUSH2 0x74B SWAP1 TIMESTAMP LT PUSH2 0x5B1 JUMP JUMPDEST DUP7 SWAP2 PUSH2 0x8B7 JUMPI PUSH2 0x8AE JUMPI JUMPDEST PUSH1 0x2 DUP6 EQ PUSH2 0x8A5 JUMPI JUMPDEST PUSH1 0x3 DUP6 EQ PUSH2 0x89C JUMPI JUMPDEST DUP2 DUP2 MUL SWAP1 DUP1 DUP3 DIV DUP4 EQ SWAP1 ISZERO OR ISZERO PUSH2 0x863 JUMPI PUSH1 0x7 SLOAD DUP5 MLOAD PUSH4 0x23B872DD PUSH1 0xE0 SHL DUP2 MSTORE CALLER DUP6 DUP3 ADD SWAP1 DUP2 MSTORE ADDRESS PUSH1 0x20 DUP3 DUP2 ADD SWAP2 SWAP1 SWAP2 MSTORE PUSH1 0x40 DUP3 ADD SWAP5 SWAP1 SWAP5 MSTORE SWAP3 SWAP4 SWAP3 SWAP1 SWAP2 DUP5 SWAP2 DUP4 SWAP2 PUSH1 0x1 PUSH1 0x1 PUSH1 0xA0 SHL SUB AND SWAP1 DUP3 SWAP1 DUP12 SWAP1 DUP3 SWAP1 PUSH1 0x60 ADD SUB SWAP3 GAS CALL SWAP1 DUP2 ISZERO PUSH2 0x892 JUMPI SWAP1 PUSH2 0x7D9 SWAP2 DUP9 SWAP2 PUSH2 0x875 JUMPI POP PUSH2 0x1B64 JUMP JUMPDEST PUSH3 0x15180 DUP1 DUP3 MUL SWAP2 DUP3 DIV SUB PUSH2 0x863 JUMPI TIMESTAMP ADD SWAP2 DUP3 TIMESTAMP GT PUSH2 0x851 JUMPI POP SWAP1 PUSH32 0xCB1D9E2F1ADE80C30CD5A94CC785E4E0FE02C9733AB244988D4A57BD30E71231 SWAP3 SWAP2 CALLER DUP7 MSTORE PUSH1 0xB DUP2 MSTORE DUP2 DUP4 DUP8 KECCAK256 SSTORE PUSH1 0xC DUP2 MSTORE DUP3 DUP7 KECCAK256 PUSH1 0xFF NOT DUP2 SLOAD AND PUSH1 0xFF DUP8 AND OR SWAP1 SSTORE PUSH2 0x843 DUP4 MLOAD DUP1 SWAP7 PUSH2 0x1908 JUMP JUMPDEST DUP5 ADD MSTORE CALLER SWAP3 LOG2 PUSH1 0x1 PUSH1 0x6 SSTORE DUP1 RETURN JUMPDEST PUSH4 0x4E487B71 PUSH1 0xE0 SHL DUP7 MSTORE PUSH1 0x11 SWAP1 MSTORE DUP6 DUP6 REVERT JUMPDEST PUSH4 0x4E487B71 PUSH1 0xE0 SHL DUP7 MSTORE PUSH1 0x11 DUP4 MSTORE DUP7 DUP7 REVERT JUMPDEST PUSH2 0x88C SWAP2 POP DUP5 RETURNDATASIZE DUP7 GT PUSH2 0x697 JUMPI PUSH2 0x689 DUP2 DUP4 PUSH2 0x198E JUMP JUMPDEST DUP10 PUSH2 0x60F JUMP JUMPDEST DUP6 MLOAD RETURNDATASIZE DUP10 DUP3 RETURNDATACOPY RETURNDATASIZE SWAP1 REVERT JUMPDEST POP PUSH1 0x11 SLOAD PUSH2 0x768 JUMP JUMPDEST POP PUSH1 0x10 SLOAD PUSH2 0x75F JUMP JUMPDEST POP PUSH1 0xF SLOAD PUSH2 0x756 JUMP JUMPDEST PUSH4 0x4E487B71 PUSH1 0xE0 SHL DUP8 MSTORE PUSH1 0x21 DUP5 MSTORE DUP8 DUP8 REVERT JUMPDEST DUP5 MLOAD PUSH3 0x461BCD PUSH1 0xE5 SHL DUP2 MSTORE PUSH1 0x20 DUP2 DUP7 ADD MSTORE PUSH1 0xC DUP2 DUP11 ADD MSTORE PUSH12 0x64617973436F756E743D303F PUSH1 0xA0 SHL PUSH1 0x44 DUP3 ADD MSTORE PUSH1 0x64 SWAP1 REVERT JUMPDEST DUP5 MLOAD PUSH3 0x461BCD PUSH1 0xE5 SHL DUP2 MSTORE PUSH1 0x20 DUP2 DUP7 ADD MSTORE PUSH1 0xC DUP2 DUP11 ADD MSTORE PUSH12 0x24B73B30B634B210383630B7 PUSH1 0xA1 SHL PUSH1 0x44 DUP3 ADD MSTORE PUSH1 0x64 SWAP1 REVERT JUMPDEST SWAP1 POP PUSH2 0x8B7 JUMPI PUSH1 0x3 DUP7 EQ DUP3 PUSH2 0x724 JUMP JUMPDEST POP DUP7 SWAP2 POP PUSH1 0x2 DUP7 EQ PUSH2 0x71C JUMP JUMPDEST POP POP CALLVALUE PUSH2 0x1FA JUMPI PUSH1 0x20 CALLDATASIZE PUSH1 0x3 NOT ADD SLT PUSH2 0x1FA JUMPI PUSH1 0x20 SWAP1 PUSH2 0x986 PUSH2 0x969 PUSH2 0x18D7 JUMP JUMPDEST PUSH1 0x1 PUSH1 0x1 PUSH1 0xA0 SHL SUB AND PUSH1 0x0 SWAP1 DUP2 MSTORE PUSH1 0xB PUSH1 0x20 MSTORE PUSH1 0x40 SWAP1 KECCAK256 SLOAD TIMESTAMP LT SWAP1 JUMP JUMPDEST SWAP1 MLOAD SWAP1 ISZERO ISZERO DUP2 MSTORE RETURN JUMPDEST SWAP2 SWAP1 POP CALLVALUE PUSH2 0x2FA JUMPI PUSH1 0x20 CALLDATASIZE PUSH1 0x3 NOT ADD SLT PUSH2 0x2FA JUMPI DUP2 CALLDATALOAD SWAP3 PUSH1 0x13 SLOAD DUP5 LT ISZERO PUSH2 0x9FA JUMPI POP PUSH2 0x9BC PUSH1 0xA0 SWAP4 PUSH2 0x19B0 JUMP JUMPDEST POP DUP1 SLOAD SWAP3 PUSH1 0x1 DUP3 ADD SLOAD SWAP3 PUSH1 0xFF PUSH1 0x1 DUP1 DUP9 SHL SUB PUSH1 0x2 DUP6 ADD SLOAD AND SWAP3 PUSH1 0x3 DUP6 ADD SLOAD SWAP5 ADD SLOAD AND SWAP4 DUP2 MLOAD SWAP6 DUP7 MSTORE PUSH1 0x20 DUP7 ADD MSTORE DUP5 ADD MSTORE PUSH1 0x60 DUP4 ADD MSTORE ISZERO ISZERO PUSH1 0x80 DUP3 ADD MSTORE RETURN JUMPDEST DUP1 REVERT JUMPDEST POP POP CALLVALUE PUSH2 0x1FA JUMPI DUP1 PUSH1 0x3 NOT CALLDATASIZE ADD SLT PUSH2 0x1FA JUMPI DUP1 PUSH1 0x20 SWAP3 PUSH2 0xA1B PUSH2 0x18D7 JUMP JUMPDEST PUSH2 0xA23 PUSH2 0x18F2 JUMP JUMPDEST PUSH1 0x1 PUSH1 0x1 PUSH1 0xA0 SHL SUB SWAP2 DUP3 AND DUP4 MSTORE PUSH1 0x1 DUP7 MSTORE DUP4 DUP4 KECCAK256 SWAP2 AND DUP3 MSTORE DUP5 MSTORE KECCAK256 SLOAD SWAP1 MLOAD SWAP1 DUP2 MSTORE RETURN JUMPDEST POP POP CALLVALUE PUSH2 0x1FA JUMPI DUP2 PUSH1 0x3 NOT CALLDATASIZE ADD SLT PUSH2 0x1FA JUMPI PUSH1 0x20 SWAP1 PUSH1 0xF SLOAD SWAP1 MLOAD SWAP1 DUP2 MSTORE RETURN JUMPDEST POP POP CALLVALUE PUSH2 0x1FA JUMPI DUP2 PUSH1 0x3 NOT CALLDATASIZE ADD SLT PUSH2 0x1FA JUMPI PUSH1 0x20 SWAP1 PUSH1 0xE SLOAD SWAP1 MLOAD SWAP1 DUP2 MSTORE RETURN JUMPDEST DUP4 SWAP2 POP CALLVALUE PUSH2 0x1FA JUMPI PUSH1 0x20 SWAP1 DUP2 PUSH1 0x3 NOT CALLDATASIZE ADD SLT PUSH2 0x2FA JUMPI DUP1 CALLDATALOAD SWAP1 PUSH2 0xAA5 PUSH2 0x1A01 JUMP JUMPDEST PUSH1 0x7 SLOAD DUP6 MLOAD PUSH4 0x70A08231 PUSH1 0xE0 SHL DUP2 MSTORE ADDRESS DUP4 DUP3 ADD MSTORE PUSH1 0x1 PUSH1 0x1 PUSH1 0xA0 SHL SUB SWAP1 SWAP2 AND SWAP1 DUP5 DUP2 PUSH1 0x24 DUP2 DUP6 GAS STATICCALL SWAP1 DUP2 ISZERO PUSH2 0xC28 JUMPI SWAP1 DUP5 SWAP2 DUP8 SWAP2 PUSH2 0xBF3 JUMPI JUMPDEST POP LT PUSH2 0xBB0 JUMPI DUP4 DUP6 SWAP2 PUSH1 0x44 DUP9 MLOAD DUP1 SWAP5 DUP2 SWAP4 PUSH4 0xA9059CBB PUSH1 0xE0 SHL DUP4 MSTORE CALLER DUP9 DUP5 ADD MSTORE DUP9 PUSH1 0x24 DUP5 ADD MSTORE GAS CALL SWAP1 DUP2 ISZERO PUSH2 0xBA6 JUMPI DUP6 SWAP2 PUSH2 0xB89 JUMPI JUMPDEST POP ISZERO PUSH2 0xB46 JUMPI POP PUSH32 0xD0D9606E9BA3933F02A3390FD4D387F26A9A812A6F35BE64AA43AC916340CF28 SWAP3 SWAP4 MLOAD SWAP1 DUP2 MSTORE LOG1 DUP1 RETURN JUMPDEST DUP5 MLOAD PUSH3 0x461BCD PUSH1 0xE5 SHL DUP2 MSTORE SWAP1 DUP2 ADD DUP4 SWAP1 MSTORE PUSH1 0x18 PUSH1 0x24 DUP3 ADD MSTORE PUSH32 0x5769746864726177207472616E73666572206661696C65640000000000000000 PUSH1 0x44 DUP3 ADD MSTORE PUSH1 0x64 SWAP1 REVERT JUMPDEST PUSH2 0xBA0 SWAP2 POP DUP5 RETURNDATASIZE DUP7 GT PUSH2 0x697 JUMPI PUSH2 0x689 DUP2 DUP4 PUSH2 0x198E JUMP JUMPDEST DUP7 PUSH2 0xB14 JUMP JUMPDEST DUP7 MLOAD RETURNDATASIZE DUP8 DUP3 RETURNDATACOPY RETURNDATASIZE SWAP1 REVERT JUMPDEST DUP6 MLOAD PUSH3 0x461BCD PUSH1 0xE5 SHL DUP2 MSTORE DUP1 DUP4 ADD DUP6 SWAP1 MSTORE PUSH1 0x1D PUSH1 0x24 DUP3 ADD MSTORE PUSH32 0x4E6F7420656E6F75676820737562736372697074696F6E2066756E6473000000 PUSH1 0x44 DUP3 ADD MSTORE PUSH1 0x64 SWAP1 REVERT JUMPDEST DUP1 SWAP3 POP DUP7 DUP1 SWAP3 POP RETURNDATASIZE DUP4 GT PUSH2 0xC21 JUMPI JUMPDEST PUSH2 0xC0C DUP2 DUP4 PUSH2 0x198E JUMP JUMPDEST DUP2 ADD SUB SLT PUSH2 0xC1D JUMPI DUP4 SWAP1 MLOAD DUP9 PUSH2 0xADE JUMP JUMPDEST DUP6 DUP1 REVERT JUMPDEST POP RETURNDATASIZE PUSH2 0xC02 JUMP JUMPDEST DUP8 MLOAD RETURNDATASIZE DUP9 DUP3 RETURNDATACOPY RETURNDATASIZE SWAP1 REVERT JUMPDEST SWAP2 SWAP1 POP CALLVALUE PUSH2 0x2FA JUMPI PUSH1 0x20 CALLDATASIZE PUSH1 0x3 NOT ADD SLT PUSH2 0x2FA JUMPI PUSH2 0xC65 DUP3 CALLDATALOAD PUSH2 0xC53 PUSH2 0x1BA1 JUMP JUMPDEST PUSH2 0xC60 PUSH1 0x13 SLOAD DUP3 LT PUSH2 0x1DFC JUMP JUMPDEST PUSH2 0x19B0 JUMP JUMPDEST POP PUSH2 0xC7D PUSH1 0x1 DUP1 PUSH1 0xA0 SHL SUB PUSH1 0x2 DUP4 ADD SLOAD AND CALLER EQ PUSH2 0x1E38 JUMP JUMPDEST DUP3 DUP2 ADD DUP1 SLOAD PUSH2 0xC8F PUSH1 0xFF DUP3 AND ISZERO PUSH2 0x1E74 JUMP JUMPDEST PUSH1 0x2 SLOAD PUSH9 0x2B5E3AF16B1880000 SWAP6 DUP7 DUP3 ADD DUP1 SWAP3 GT PUSH2 0xCF4 JUMPI POP SWAP1 PUSH2 0xCC2 PUSH11 0x115EEC47F6CF7E35000000 PUSH1 0x1 SWAP4 GT ISZERO PUSH2 0x1D51 JUMP JUMPDEST PUSH1 0xFF NOT AND OR SWAP1 SSTORE PUSH2 0xCD2 CALLER PUSH2 0x1D93 JUMP JUMPDEST SLOAD SWAP1 MLOAD SWAP2 DUP3 MSTORE PUSH1 0x0 DUP1 MLOAD PUSH1 0x20 PUSH2 0x1EB3 DUP4 CODECOPY DUP2 MLOAD SWAP2 MSTORE PUSH1 0x20 CALLER SWAP4 LOG3 PUSH1 0x1 PUSH1 0x6 SSTORE DUP1 RETURN JUMPDEST PUSH4 0x4E487B71 PUSH1 0xE0 SHL DUP9 MSTORE PUSH1 0x11 SWAP1 MSTORE PUSH1 0x24 DUP8 REVERT JUMPDEST POP POP CALLVALUE PUSH2 0x1FA JUMPI DUP1 PUSH1 0x3 NOT CALLDATASIZE ADD SLT PUSH2 0x1FA JUMPI PUSH1 0x20 SWAP1 PUSH2 0xD31 PUSH2 0xD27 PUSH2 0x18D7 JUMP JUMPDEST PUSH1 0x24 CALLDATALOAD SWAP1 CALLER PUSH2 0x1A2D JUMP JUMPDEST MLOAD PUSH1 0x1 DUP2 MSTORE RETURN JUMPDEST SWAP2 SWAP1 POP CALLVALUE PUSH2 0x2FA JUMPI DUP1 PUSH1 0x3 NOT CALLDATASIZE ADD SLT PUSH2 0x2FA JUMPI PUSH8 0xFFFFFFFFFFFFFFFF SWAP2 DUP1 CALLDATALOAD DUP4 DUP2 GT PUSH2 0xF22 JUMPI PUSH2 0xD6B SWAP1 CALLDATASIZE SWAP1 DUP4 ADD PUSH2 0x192B JUMP JUMPDEST SWAP4 SWAP1 SWAP3 PUSH1 0x24 SWAP2 DUP3 CALLDATALOAD SWAP1 DUP2 GT PUSH2 0xF1E JUMPI PUSH2 0xD87 SWAP1 CALLDATASIZE SWAP1 DUP6 ADD PUSH2 0x192B JUMP JUMPDEST SWAP6 PUSH2 0xD90 PUSH2 0x1BA1 JUMP JUMPDEST CALLER PUSH1 0x0 SWAP1 DUP2 MSTORE PUSH1 0xB PUSH1 0x20 MSTORE PUSH1 0x40 SWAP1 KECCAK256 SLOAD PUSH2 0xDAB SWAP1 TIMESTAMP LT PUSH2 0x1BE9 JUMP JUMPDEST PUSH2 0xDB6 DUP8 DUP3 EQ PUSH2 0x1D04 JUMP JUMPDEST DUP8 JUMPDEST DUP2 DUP2 LT PUSH2 0xDC8 JUMPI DUP9 PUSH1 0x1 PUSH1 0x6 SSTORE DUP1 RETURN JUMPDEST DUP9 PUSH2 0xDD4 DUP3 DUP5 DUP11 PUSH2 0x1D41 JUMP JUMPDEST CALLDATALOAD CALLER DUP3 MSTORE PUSH1 0x14 PUSH2 0xDF7 PUSH1 0xFF DUP9 PUSH1 0x20 SWAP6 DUP5 DUP8 MSTORE DUP2 DUP2 KECCAK256 DUP7 DUP3 MSTORE DUP8 MSTORE KECCAK256 SLOAD AND ISZERO PUSH2 0x1C2C JUMP JUMPDEST CALLER DUP13 MSTORE DUP3 MSTORE DUP6 DUP12 KECCAK256 DUP2 DUP13 MSTORE DUP3 MSTORE DUP6 DUP12 KECCAK256 SWAP2 PUSH1 0x1 SWAP3 DUP4 PUSH1 0xFF NOT DUP3 SLOAD AND OR SWAP1 SSTORE PUSH2 0xE7F PUSH2 0xE23 DUP6 DUP14 DUP10 PUSH2 0x1D41 JUMP JUMPDEST DUP9 MLOAD DUP4 DUP2 ADD DUP6 DUP2 MSTORE CALLER PUSH1 0x60 SHL PUSH1 0x1 PUSH1 0x1 PUSH1 0x60 SHL SUB NOT AND PUSH1 0x20 DUP3 ADD MSTORE SWAP2 CALLDATALOAD PUSH1 0x34 DUP4 ADD MSTORE PUSH2 0xE52 DUP2 PUSH1 0x54 DUP5 ADD PUSH2 0x48C JUMP JUMPDEST MLOAD SWAP1 KECCAK256 SWAP4 DUP9 MLOAD SWAP1 PUSH2 0xE62 DUP3 PUSH2 0x195C JUMP JUMPDEST DUP5 DUP3 MSTORE DUP6 DUP5 DUP4 ADD MSTORE CALLER DUP11 DUP4 ADD MSTORE TIMESTAMP PUSH1 0x60 DUP4 ADD MSTORE PUSH1 0x80 DUP3 ADD MSTORE PUSH2 0x1C6E JUMP JUMPDEST PUSH1 0x2 SLOAD SWAP3 PUSH9 0x2B5E3AF16B1880000 SWAP4 DUP5 DUP2 ADD DUP1 SWAP2 GT PUSH2 0xF0C JUMPI SWAP2 PUSH1 0x0 DUP1 MLOAD PUSH1 0x20 PUSH2 0x1EB3 DUP4 CODECOPY DUP2 MLOAD SWAP2 MSTORE SWAP2 PUSH2 0xEC6 PUSH11 0x115EEC47F6CF7E35000000 PUSH2 0xF07 SWAP9 SWAP8 SWAP7 SWAP6 GT ISZERO PUSH2 0x1D51 JUMP JUMPDEST PUSH2 0xECF CALLER PUSH2 0x1D93 JUMP JUMPDEST DUP10 MLOAD SWAP1 DUP2 MSTORE DUP4 PUSH32 0x78B896357132952012FED86DEDF1BFCFB388A941F2B7F4CB3F270ED3780155CA DUP4 CALLER SWAP4 LOG3 DUP9 MLOAD SWAP4 DUP5 MSTORE CALLER SWAP4 LOG3 PUSH2 0x1BC4 JUMP JUMPDEST PUSH2 0xDB8 JUMP JUMPDEST PUSH4 0x4E487B71 PUSH1 0xE0 SHL DUP15 MSTORE PUSH1 0x11 DUP12 MSTORE DUP10 DUP15 REVERT JUMPDEST DUP7 DUP1 REVERT JUMPDEST DUP5 DUP1 REVERT JUMPDEST DUP4 DUP4 CALLVALUE PUSH2 0x1FA JUMPI DUP2 PUSH1 0x3 NOT CALLDATASIZE ADD SLT PUSH2 0x1FA JUMPI DUP1 MLOAD SWAP2 DUP1 SWAP4 DUP1 SLOAD SWAP2 PUSH1 0x1 SWAP1 DUP4 DUP3 SHR SWAP3 DUP3 DUP6 AND SWAP5 DUP6 ISZERO PUSH2 0x101F JUMPI JUMPDEST PUSH1 0x20 SWAP6 DUP7 DUP7 LT DUP2 EQ PUSH2 0x100C JUMPI DUP6 DUP10 MSTORE SWAP1 DUP2 ISZERO PUSH2 0xFE8 JUMPI POP PUSH1 0x1 EQ PUSH2 0xF90 JUMPI JUMPDEST PUSH2 0xF8C DUP8 DUP8 PUSH2 0xF82 DUP3 DUP13 SUB DUP4 PUSH2 0x198E JUMP JUMPDEST MLOAD SWAP2 DUP3 SWAP2 DUP3 PUSH2 0x188E JUMP JUMPDEST SUB SWAP1 RETURN JUMPDEST DUP2 MSTORE SWAP3 SWAP6 POP PUSH32 0x8A35ACFBC15FF81A39AE7D344FD709F28E8600B4AA8C65C6B64BFE7FE36BD19B JUMPDEST DUP3 DUP5 LT PUSH2 0xFD5 JUMPI POP POP POP DUP3 PUSH2 0xF8C SWAP5 PUSH2 0xF82 SWAP3 DUP3 ADD ADD SWAP5 DUP7 DUP1 PUSH2 0xF71 JUMP JUMPDEST DUP1 SLOAD DUP7 DUP6 ADD DUP9 ADD MSTORE SWAP3 DUP7 ADD SWAP3 DUP2 ADD PUSH2 0xFB7 JUMP JUMPDEST PUSH1 0xFF NOT AND DUP9 DUP8 ADD MSTORE POP POP POP POP ISZERO ISZERO PUSH1 0x5 SHL DUP4 ADD ADD SWAP3 POP PUSH2 0xF82 DUP3 PUSH2 0xF8C DUP7 DUP1 PUSH2 0xF71 JUMP JUMPDEST PUSH4 0x4E487B71 PUSH1 0xE0 SHL DUP5 MSTORE PUSH1 0x22 DUP4 MSTORE PUSH1 0x24 DUP5 REVERT JUMPDEST SWAP4 PUSH1 0x7F AND SWAP4 PUSH2 0xF52 JUMP JUMPDEST POP POP CALLVALUE PUSH2 0x1FA JUMPI DUP2 PUSH1 0x3 NOT CALLDATASIZE ADD SLT PUSH2 0x1FA JUMPI PUSH1 0x5 SLOAD SWAP1 MLOAD PUSH1 0x1 PUSH1 0x1 PUSH1 0xA0 SHL SUB SWAP1 SWAP2 AND DUP2 MSTORE PUSH1 0x20 SWAP1 RETURN JUMPDEST SWAP2 SWAP1 POP CALLVALUE PUSH2 0x2FA JUMPI DUP3 PUSH1 0x3 NOT CALLDATASIZE ADD SLT PUSH2 0x2FA JUMPI DUP1 MLOAD SWAP2 DUP4 PUSH1 0x8 SLOAD SWAP1 PUSH1 0x1 SWAP1 DUP3 DUP3 SHR SWAP3 DUP3 DUP2 AND DUP1 ISZERO PUSH2 0x113D JUMPI JUMPDEST PUSH1 0x20 SWAP6 DUP7 DUP7 LT DUP3 EQ PUSH2 0x112A JUMPI POP DUP5 DUP9 MSTORE SWAP1 DUP2 ISZERO PUSH2 0x1108 JUMPI POP PUSH1 0x1 EQ PUSH2 0x10AF JUMPI JUMPDEST PUSH2 0xF8C DUP7 DUP7 PUSH2 0xF82 DUP3 DUP12 SUB DUP4 PUSH2 0x198E JUMP JUMPDEST SWAP3 SWAP6 POP PUSH1 0x8 DUP4 MSTORE PUSH32 0xF3F7A9FE364FAAB93B216DA50A3214154F22A0A2B415B23A84C8169E8B636EE3 JUMPDEST DUP3 DUP5 LT PUSH2 0x10F5 JUMPI POP POP POP DUP3 PUSH2 0xF8C SWAP5 PUSH2 0xF82 SWAP3 DUP3 ADD ADD SWAP5 CODESIZE PUSH2 0x109E JUMP JUMPDEST DUP1 SLOAD DUP7 DUP6 ADD DUP9 ADD MSTORE SWAP3 DUP7 ADD SWAP3 DUP2 ADD PUSH2 0x10D8 JUMP JUMPDEST PUSH1 0xFF NOT AND DUP8 DUP7 ADD MSTORE POP POP POP ISZERO ISZERO PUSH1 0x5 SHL DUP4 ADD ADD SWAP3 POP PUSH2 0xF82 DUP3 PUSH2 0xF8C CODESIZE PUSH2 0x109E JUMP JUMPDEST PUSH4 0x4E487B71 PUSH1 0xE0 SHL DUP5 MSTORE PUSH1 0x22 SWAP1 MSTORE PUSH1 0x24 DUP4 REVERT JUMPDEST SWAP4 PUSH1 0x7F AND SWAP4 PUSH2 0x107E JUMP JUMPDEST POP POP CALLVALUE PUSH2 0x1FA JUMPI DUP2 PUSH1 0x3 NOT CALLDATASIZE ADD SLT PUSH2 0x1FA JUMPI PUSH1 0x20 SWAP1 MLOAD PUSH9 0x2B5E3AF16B1880000 DUP2 MSTORE RETURN JUMPDEST SWAP2 SWAP1 POP CALLVALUE PUSH2 0x2FA JUMPI PUSH1 0x20 SWAP1 DUP2 PUSH1 0x3 NOT CALLDATASIZE ADD SLT PUSH2 0x56F JUMPI DUP3 CALLDATALOAD PUSH8 0xFFFFFFFFFFFFFFFF DUP2 GT PUSH2 0xF22 JUMPI PUSH2 0x119F SWAP1 CALLDATASIZE SWAP1 DUP6 ADD PUSH2 0x192B JUMP JUMPDEST PUSH2 0x11AA SWAP4 SWAP2 SWAP4 PUSH2 0x1BA1 JUMP JUMPDEST DUP6 JUMPDEST DUP2 DUP2 LT PUSH2 0x11BC JUMPI DUP7 PUSH1 0x1 PUSH1 0x6 SSTORE DUP1 RETURN JUMPDEST PUSH2 0x11D8 PUSH2 0x11CA DUP3 DUP5 DUP9 PUSH2 0x1D41 JUMP JUMPDEST CALLDATALOAD PUSH2 0xC60 PUSH1 0x13 SLOAD DUP3 LT PUSH2 0x1DFC JUMP JUMPDEST POP PUSH1 0x2 DUP2 DUP2 ADD SLOAD SWAP1 SWAP2 SWAP1 PUSH2 0x11F6 SWAP1 PUSH1 0x1 PUSH1 0x1 PUSH1 0xA0 SHL SUB AND CALLER EQ PUSH2 0x1E38 JUMP JUMPDEST DUP8 DUP2 ADD DUP1 SLOAD SWAP3 PUSH2 0x1209 PUSH1 0xFF DUP6 AND ISZERO PUSH2 0x1E74 JUMP JUMPDEST SLOAD SWAP3 PUSH9 0x2B5E3AF16B1880000 SWAP4 DUP5 DUP2 ADD DUP1 SWAP2 GT PUSH2 0x1274 JUMPI PUSH2 0x126F SWAP6 SWAP5 SWAP4 SWAP3 SWAP2 PUSH2 0x1241 PUSH11 0x115EEC47F6CF7E35000000 PUSH1 0x1 SWAP4 GT ISZERO PUSH2 0x1D51 JUMP JUMPDEST PUSH1 0xFF NOT AND OR SWAP1 SSTORE PUSH2 0x1251 CALLER PUSH2 0x1D93 JUMP JUMPDEST SLOAD DUP7 MLOAD SWAP2 DUP3 MSTORE PUSH1 0x0 DUP1 MLOAD PUSH1 0x20 PUSH2 0x1EB3 DUP4 CODECOPY DUP2 MLOAD SWAP2 MSTORE DUP7 CALLER SWAP4 LOG3 PUSH2 0x1BC4 JUMP JUMPDEST PUSH2 0x11AC JUMP JUMPDEST PUSH4 0x4E487B71 PUSH1 0xE0 SHL DUP13 MSTORE PUSH1 0x11 DUP12 MSTORE PUSH1 0x24 DUP13 REVERT JUMPDEST DUP4 CALLVALUE PUSH2 0x9FA JUMPI DUP1 PUSH1 0x3 NOT CALLDATASIZE ADD SLT PUSH2 0x9FA JUMPI PUSH2 0x12A0 PUSH2 0x1A01 JUMP JUMPDEST PUSH1 0x5 DUP1 SLOAD PUSH1 0x1 PUSH1 0x1 PUSH1 0xA0 SHL SUB NOT DUP2 AND SWAP1 SWAP2 SSTORE DUP2 SWAP1 PUSH1 0x1 PUSH1 0x1 PUSH1 0xA0 SHL SUB AND PUSH32 0x8BE0079C531659141344CD1FD0A4F28419497F9722A3DAAFE3B4186F6B6457E0 DUP3 DUP1 LOG3 DUP1 RETURN JUMPDEST POP POP CALLVALUE PUSH2 0x1FA JUMPI PUSH1 0x20 CALLDATASIZE PUSH1 0x3 NOT ADD SLT PUSH2 0x1FA JUMPI PUSH1 0x20 SWAP2 DUP2 SWAP1 PUSH1 0x1 PUSH1 0x1 PUSH1 0xA0 SHL SUB PUSH2 0x130C PUSH2 0x18D7 JUMP JUMPDEST AND DUP2 MSTORE DUP1 DUP5 MSTORE KECCAK256 SLOAD SWAP1 MLOAD SWAP1 DUP2 MSTORE RETURN JUMPDEST POP POP CALLVALUE PUSH2 0x1FA JUMPI DUP2 PUSH1 0x3 NOT CALLDATASIZE ADD SLT PUSH2 0x1FA JUMPI PUSH1 0x20 SWAP1 PUSH1 0x13 SLOAD SWAP1 MLOAD SWAP1 DUP2 MSTORE RETURN JUMPDEST SWAP1 POP CALLVALUE PUSH2 0x2FA JUMPI PUSH1 0x20 CALLDATASIZE PUSH1 0x3 NOT ADD SLT PUSH2 0x2FA JUMPI PUSH32 0xC246568FD822C64E52DB247444169EF32469AC5F7095DC1069389FEB1142DFD SWAP2 PUSH1 0x20 SWAP2 CALLDATALOAD SWAP1 PUSH2 0x137C PUSH2 0x1A01 JUMP JUMPDEST DUP2 PUSH1 0x9 SSTORE MLOAD SWAP1 DUP2 MSTORE LOG1 DUP1 RETURN JUMPDEST POP POP CALLVALUE PUSH2 0x1FA JUMPI PUSH1 0x20 CALLDATASIZE PUSH1 0x3 NOT ADD SLT PUSH2 0x1FA JUMPI PUSH1 0x20 SWAP2 PUSH2 0x13CA SWAP1 PUSH1 0xFF SWAP1 DUP4 SWAP1 PUSH1 0x1 PUSH1 0x1 PUSH1 0xA0 SHL SUB PUSH2 0x13B7 PUSH2 0x18D7 JUMP JUMPDEST AND DUP2 MSTORE PUSH1 0xC DUP7 MSTORE KECCAK256 SLOAD AND SWAP2 MLOAD DUP1 SWAP3 PUSH2 0x1908 JUMP JUMPDEST RETURN JUMPDEST POP POP CALLVALUE PUSH2 0x1FA JUMPI DUP2 PUSH1 0x3 NOT CALLDATASIZE ADD SLT PUSH2 0x1FA JUMPI PUSH1 0x20 SWAP1 MLOAD PUSH11 0x115EEC47F6CF7E35000000 DUP2 MSTORE RETURN JUMPDEST POP POP CALLVALUE PUSH2 0x1FA JUMPI DUP2 PUSH1 0x3 NOT CALLDATASIZE ADD SLT PUSH2 0x1FA JUMPI PUSH1 0x20 SWAP1 MLOAD PUSH1 0x12 DUP2 MSTORE RETURN JUMPDEST POP POP CALLVALUE PUSH2 0x1FA JUMPI DUP2 PUSH1 0x3 NOT CALLDATASIZE ADD SLT PUSH2 0x1FA JUMPI PUSH1 0x7 SLOAD SWAP1 MLOAD PUSH1 0x1 PUSH1 0x1 PUSH1 0xA0 SHL SUB SWAP1 SWAP2 AND DUP2 MSTORE PUSH1 0x20 SWAP1 RETURN JUMPDEST POP POP CALLVALUE PUSH2 0x1FA JUMPI DUP2 PUSH1 0x3 NOT CALLDATASIZE ADD SLT PUSH2 0x1FA JUMPI PUSH1 0x20 SWAP1 PUSH1 0xD SLOAD SWAP1 MLOAD SWAP1 DUP2 MSTORE RETURN JUMPDEST SWAP1 POP DUP3 CALLVALUE PUSH2 0x9FA JUMPI PUSH1 0x60 CALLDATASIZE PUSH1 0x3 NOT ADD SLT PUSH2 0x9FA JUMPI PUSH2 0x1472 PUSH2 0x18D7 JUMP JUMPDEST PUSH2 0x147A PUSH2 0x18F2 JUMP JUMPDEST SWAP2 PUSH1 0x44 CALLDATALOAD SWAP4 PUSH1 0x1 DUP1 PUSH1 0xA0 SHL SUB DUP4 AND DUP1 DUP4 MSTORE PUSH1 0x1 PUSH1 0x20 MSTORE DUP7 DUP4 KECCAK256 CALLER DUP5 MSTORE PUSH1 0x20 MSTORE DUP7 DUP4 KECCAK256 SLOAD SWAP2 PUSH1 0x0 NOT DUP4 LT PUSH2 0x14B6 JUMPI JUMPDEST PUSH1 0x20 DUP9 PUSH2 0xD31 DUP10 DUP10 DUP10 PUSH2 0x1A2D JUMP JUMPDEST DUP7 DUP4 LT PUSH2 0x151E JUMPI DUP2 ISZERO PUSH2 0x1507 JUMPI CALLER ISZERO PUSH2 0x14F0 JUMPI POP DUP3 MSTORE PUSH1 0x1 PUSH1 0x20 SWAP1 DUP2 MSTORE DUP7 DUP4 KECCAK256 CALLER DUP5 MSTORE DUP2 MSTORE SWAP2 DUP7 SWAP1 KECCAK256 SWAP1 DUP6 SWAP1 SUB SWAP1 SSTORE DUP3 SWAP1 PUSH2 0xD31 DUP8 PUSH2 0x14A8 JUMP JUMPDEST DUP8 MLOAD PUSH4 0x4A1406B1 PUSH1 0xE1 SHL DUP2 MSTORE SWAP1 DUP2 ADD DUP5 SWAP1 MSTORE PUSH1 0x24 SWAP1 REVERT JUMPDEST DUP8 MLOAD PUSH4 0xE602DF05 PUSH1 0xE0 SHL DUP2 MSTORE SWAP1 DUP2 ADD DUP5 SWAP1 MSTORE PUSH1 0x24 SWAP1 REVERT JUMPDEST DUP8 MLOAD PUSH4 0x7DC7A0D9 PUSH1 0xE1 SHL DUP2 MSTORE CALLER SWAP2 DUP2 ADD SWAP2 DUP3 MSTORE PUSH1 0x20 DUP3 ADD SWAP4 SWAP1 SWAP4 MSTORE PUSH1 0x40 DUP2 ADD DUP8 SWAP1 MSTORE DUP3 SWAP2 POP PUSH1 0x60 ADD SUB SWAP1 REVERT JUMPDEST POP POP CALLVALUE PUSH2 0x1FA JUMPI DUP1 PUSH1 0x3 NOT CALLDATASIZE ADD SLT PUSH2 0x1FA JUMPI PUSH1 0x20 SWAP2 PUSH1 0xFF SWAP1 DUP3 SWAP1 PUSH1 0x1 PUSH1 0x1 PUSH1 0xA0 SHL SUB PUSH2 0x1574 PUSH2 0x18D7 JUMP JUMPDEST AND DUP2 MSTORE PUSH1 0x14 DUP6 MSTORE DUP2 DUP2 KECCAK256 PUSH1 0x24 CALLDATALOAD DUP3 MSTORE DUP6 MSTORE KECCAK256 SLOAD AND SWAP1 MLOAD SWAP1 ISZERO ISZERO DUP2 MSTORE RETURN JUMPDEST POP POP CALLVALUE PUSH2 0x1FA JUMPI DUP2 PUSH1 0x3 NOT CALLDATASIZE ADD SLT PUSH2 0x1FA JUMPI PUSH1 0x20 SWAP1 PUSH1 0x2 SLOAD SWAP1 MLOAD SWAP1 DUP2 MSTORE RETURN JUMPDEST SWAP1 POP CALLVALUE PUSH2 0x2FA JUMPI DUP2 PUSH1 0x3 NOT CALLDATASIZE ADD SLT PUSH2 0x2FA JUMPI CALLER PUSH1 0x0 SWAP1 DUP2 MSTORE PUSH1 0xB PUSH1 0x20 MSTORE PUSH1 0x40 SWAP1 KECCAK256 SLOAD SWAP1 CALLDATALOAD SWAP1 PUSH2 0x15E0 SWAP1 TIMESTAMP LT PUSH2 0x1BE9 JUMP JUMPDEST CALLER DUP4 MSTORE PUSH32 0x78B896357132952012FED86DEDF1BFCFB388A941F2B7F4CB3F270ED3780155CA PUSH1 0x20 PUSH1 0x14 DUP2 MSTORE DUP4 DUP6 KECCAK256 DUP4 DUP7 MSTORE DUP2 MSTORE PUSH2 0x1622 PUSH1 0xFF DUP6 DUP8 KECCAK256 SLOAD AND ISZERO PUSH2 0x1C2C JUMP JUMPDEST CALLER DUP1 DUP7 MSTORE PUSH1 0x14 DUP3 MSTORE DUP5 DUP7 KECCAK256 DUP5 DUP8 MSTORE DUP3 MSTORE DUP5 DUP7 KECCAK256 DUP1 SLOAD PUSH1 0xFF NOT AND PUSH1 0x1 OR SWAP1 SSTORE DUP5 MLOAD DUP1 DUP4 ADD DUP6 DUP2 MSTORE PUSH1 0x60 SWAP3 SWAP1 SWAP3 SHL PUSH1 0x1 PUSH1 0x1 PUSH1 0x60 SHL SUB NOT AND PUSH1 0x20 DUP4 ADD MSTORE PUSH1 0x24 CALLDATALOAD PUSH1 0x34 DUP4 ADD MSTORE PUSH2 0x1672 DUP2 PUSH1 0x54 DUP5 ADD PUSH2 0x48C JUMP JUMPDEST MLOAD SWAP1 KECCAK256 SWAP4 PUSH2 0x16A2 DUP2 MLOAD PUSH2 0x1684 DUP2 PUSH2 0x195C JUMP JUMPDEST DUP6 DUP2 MSTORE DUP7 DUP5 DUP3 ADD MSTORE CALLER DUP4 DUP3 ADD MSTORE TIMESTAMP PUSH1 0x60 DUP3 ADD MSTORE DUP8 PUSH1 0x80 DUP3 ADD MSTORE PUSH2 0x1C6E JUMP JUMPDEST MLOAD SWAP4 DUP5 MSTORE CALLER SWAP4 LOG3 DUP1 RETURN JUMPDEST POP POP CALLVALUE PUSH2 0x1FA JUMPI DUP2 PUSH1 0x3 NOT CALLDATASIZE ADD SLT PUSH2 0x1FA JUMPI PUSH1 0x20 SWAP1 PUSH1 0x12 SLOAD SWAP1 MLOAD SWAP1 DUP2 MSTORE RETURN JUMPDEST SWAP1 POP CALLVALUE PUSH2 0x2FA JUMPI DUP2 PUSH1 0x3 NOT CALLDATASIZE ADD SLT PUSH2 0x2FA JUMPI PUSH2 0x16E5 PUSH2 0x18D7 JUMP JUMPDEST PUSH1 0x24 CALLDATALOAD SWAP1 CALLER ISZERO PUSH2 0x175E JUMPI PUSH1 0x1 PUSH1 0x1 PUSH1 0xA0 SHL SUB AND SWAP2 DUP3 ISZERO PUSH2 0x1747 JUMPI POP DUP1 DUP4 PUSH1 0x20 SWAP6 CALLER DUP2 MSTORE PUSH1 0x1 DUP8 MSTORE DUP2 DUP2 KECCAK256 DUP6 DUP3 MSTORE DUP8 MSTORE KECCAK256 SSTORE DUP3 MLOAD SWAP1 DUP2 MSTORE PUSH32 0x8C5BE1E5EBEC7D5BD14F71427D1E84F3DD0314C0F7B2291E5B200AC8C7C3B925 DUP5 CALLER SWAP3 LOG3 MLOAD PUSH1 0x1 DUP2 MSTORE RETURN JUMPDEST DUP4 MLOAD PUSH4 0x4A1406B1 PUSH1 0xE1 SHL DUP2 MSTORE SWAP1 DUP2 ADD DUP6 SWAP1 MSTORE PUSH1 0x24 SWAP1 REVERT JUMPDEST DUP4 MLOAD PUSH4 0xE602DF05 PUSH1 0xE0 SHL DUP2 MSTORE DUP1 DUP5 ADD DUP7 SWAP1 MSTORE PUSH1 0x24 SWAP1 REVERT JUMPDEST POP POP CALLVALUE PUSH2 0x1FA JUMPI DUP2 PUSH1 0x3 NOT CALLDATASIZE ADD SLT PUSH2 0x1FA JUMPI PUSH1 0x20 SWAP1 PUSH1 0x10 SLOAD SWAP1 MLOAD SWAP1 DUP2 MSTORE RETURN JUMPDEST SWAP2 SWAP1 POP CALLVALUE PUSH2 0x2FA JUMPI DUP3 PUSH1 0x3 NOT CALLDATASIZE ADD SLT PUSH2 0x2FA JUMPI DUP1 MLOAD SWAP2 DUP4 PUSH1 0x3 SLOAD SWAP1 PUSH1 0x1 SWAP1 DUP3 DUP3 SHR SWAP3 DUP3 DUP2 AND DUP1 ISZERO PUSH2 0x1849 JUMPI JUMPDEST PUSH1 0x20 SWAP6 DUP7 DUP7 LT DUP3 EQ PUSH2 0x112A JUMPI POP DUP5 DUP9 MSTORE SWAP1 DUP2 ISZERO PUSH2 0x1108 JUMPI POP PUSH1 0x1 EQ PUSH2 0x17F0 JUMPI PUSH2 0xF8C DUP7 DUP7 PUSH2 0xF82 DUP3 DUP12 SUB DUP4 PUSH2 0x198E JUMP JUMPDEST SWAP3 SWAP6 POP PUSH1 0x3 DUP4 MSTORE PUSH32 0xC2575A0E9E593C00F959F8C92F12DB2869C3395A3B0502D05E2516446F71F85B JUMPDEST DUP3 DUP5 LT PUSH2 0x1836 JUMPI POP POP POP DUP3 PUSH2 0xF8C SWAP5 PUSH2 0xF82 SWAP3 DUP3 ADD ADD SWAP5 CODESIZE PUSH2 0x109E JUMP JUMPDEST DUP1 SLOAD DUP7 DUP6 ADD DUP9 ADD MSTORE SWAP3 DUP7 ADD SWAP3 DUP2 ADD PUSH2 0x1819 JUMP JUMPDEST SWAP4 PUSH1 0x7F AND SWAP4 PUSH2 0x17C0 JUMP JUMPDEST POP POP CALLVALUE PUSH2 0x1FA JUMPI DUP2 PUSH1 0x3 NOT CALLDATASIZE ADD SLT PUSH2 0x1FA JUMPI PUSH1 0x20 SWAP1 PUSH1 0x11 SLOAD SWAP1 MLOAD SWAP1 DUP2 MSTORE RETURN JUMPDEST DUP5 SWAP1 CALLVALUE PUSH2 0x1FA JUMPI DUP2 PUSH1 0x3 NOT CALLDATASIZE ADD SLT PUSH2 0x1FA JUMPI PUSH1 0x20 SWAP1 PUSH1 0x9 SLOAD DUP2 MSTORE RETURN JUMPDEST PUSH1 0x20 DUP1 DUP3 MSTORE DUP3 MLOAD DUP2 DUP4 ADD DUP2 SWAP1 MSTORE SWAP1 SWAP4 SWAP3 PUSH1 0x0 JUMPDEST DUP3 DUP2 LT PUSH2 0x18C3 JUMPI POP POP PUSH1 0x40 SWAP3 SWAP4 POP PUSH1 0x0 DUP4 DUP3 DUP5 ADD ADD MSTORE PUSH1 0x1F DUP1 NOT SWAP2 ADD AND ADD ADD SWAP1 JUMP JUMPDEST DUP2 DUP2 ADD DUP7 ADD MLOAD DUP5 DUP3 ADD PUSH1 0x40 ADD MSTORE DUP6 ADD PUSH2 0x18A1 JUMP JUMPDEST PUSH1 0x4 CALLDATALOAD SWAP1 PUSH1 0x1 PUSH1 0x1 PUSH1 0xA0 SHL SUB DUP3 AND DUP3 SUB PUSH2 0x18ED JUMPI JUMP JUMPDEST PUSH1 0x0 DUP1 REVERT JUMPDEST PUSH1 0x24 CALLDATALOAD SWAP1 PUSH1 0x1 PUSH1 0x1 PUSH1 0xA0 SHL SUB DUP3 AND DUP3 SUB PUSH2 0x18ED JUMPI JUMP JUMPDEST SWAP1 PUSH1 0x5 DUP3 LT ISZERO PUSH2 0x1915 JUMPI MSTORE JUMP JUMPDEST PUSH4 0x4E487B71 PUSH1 0xE0 SHL PUSH1 0x0 MSTORE PUSH1 0x21 PUSH1 0x4 MSTORE PUSH1 0x24 PUSH1 0x0 REVERT JUMPDEST SWAP2 DUP2 PUSH1 0x1F DUP5 ADD SLT ISZERO PUSH2 0x18ED JUMPI DUP3 CALLDATALOAD SWAP2 PUSH8 0xFFFFFFFFFFFFFFFF DUP4 GT PUSH2 0x18ED JUMPI PUSH1 0x20 DUP1 DUP6 ADD SWAP5 DUP5 PUSH1 0x5 SHL ADD ADD GT PUSH2 0x18ED JUMPI JUMP JUMPDEST PUSH1 0xA0 DUP2 ADD SWAP1 DUP2 LT PUSH8 0xFFFFFFFFFFFFFFFF DUP3 GT OR PUSH2 0x1978 JUMPI PUSH1 0x40 MSTORE JUMP JUMPDEST PUSH4 0x4E487B71 PUSH1 0xE0 SHL PUSH1 0x0 MSTORE PUSH1 0x41 PUSH1 0x4 MSTORE PUSH1 0x24 PUSH1 0x0 REVERT JUMPDEST SWAP1 PUSH1 0x1F DUP1 NOT SWAP2 ADD AND DUP2 ADD SWAP1 DUP2 LT PUSH8 0xFFFFFFFFFFFFFFFF DUP3 GT OR PUSH2 0x1978 JUMPI PUSH1 0x40 MSTORE JUMP JUMPDEST PUSH1 0x13 SLOAD DUP2 LT ISZERO PUSH2 0x19EB JUMPI PUSH1 0x5 SWAP1 PUSH1 0x13 PUSH1 0x0 MSTORE MUL PUSH32 0x66DE8FFDA797E3DE9C05E8FC57B3BF0EC28A930D40B0D285D93C06501CF6A090 ADD SWAP1 PUSH1 0x0 SWAP1 JUMP JUMPDEST PUSH4 0x4E487B71 PUSH1 0xE0 SHL PUSH1 0x0 MSTORE PUSH1 0x32 PUSH1 0x4 MSTORE PUSH1 0x24 PUSH1 0x0 REVERT JUMPDEST PUSH1 0x5 SLOAD PUSH1 0x1 PUSH1 0x1 PUSH1 0xA0 SHL SUB AND CALLER SUB PUSH2 0x1A15 JUMPI JUMP JUMPDEST PUSH1 0x40 MLOAD PUSH4 0x118CDAA7 PUSH1 0xE0 SHL DUP2 MSTORE CALLER PUSH1 0x4 DUP3 ADD MSTORE PUSH1 0x24 SWAP1 REVERT JUMPDEST SWAP2 PUSH1 0x1 PUSH1 0x1 PUSH1 0xA0 SHL SUB DUP1 DUP5 AND SWAP3 DUP4 ISZERO PUSH2 0x1AF2 JUMPI AND SWAP3 DUP4 ISZERO PUSH2 0x1AD9 JUMPI PUSH1 0x0 SWAP1 DUP4 DUP3 MSTORE DUP2 PUSH1 0x20 MSTORE PUSH1 0x40 DUP3 KECCAK256 SLOAD SWAP1 DUP4 DUP3 LT PUSH2 0x1AA7 JUMPI POP SWAP2 PUSH1 0x40 DUP3 DUP3 PUSH32 0xDDF252AD1BE2C89B69C2B068FC378DAA952BA7F163C4A11628F55A4DF523B3EF SWAP6 DUP8 PUSH1 0x20 SWAP7 MSTORE DUP3 DUP7 MSTORE SUB DUP3 DUP3 KECCAK256 SSTORE DUP7 DUP2 MSTORE KECCAK256 DUP2 DUP2 SLOAD ADD SWAP1 SSTORE PUSH1 0x40 MLOAD SWAP1 DUP2 MSTORE LOG3 JUMP JUMPDEST PUSH1 0x40 MLOAD PUSH4 0x391434E3 PUSH1 0xE2 SHL DUP2 MSTORE PUSH1 0x1 PUSH1 0x1 PUSH1 0xA0 SHL SUB SWAP2 SWAP1 SWAP2 AND PUSH1 0x4 DUP3 ADD MSTORE PUSH1 0x24 DUP2 ADD SWAP2 SWAP1 SWAP2 MSTORE PUSH1 0x44 DUP2 ADD DUP4 SWAP1 MSTORE PUSH1 0x64 SWAP1 REVERT JUMPDEST PUSH1 0x40 MLOAD PUSH4 0xEC442F05 PUSH1 0xE0 SHL DUP2 MSTORE PUSH1 0x0 PUSH1 0x4 DUP3 ADD MSTORE PUSH1 0x24 SWAP1 REVERT JUMPDEST PUSH1 0x40 MLOAD PUSH4 0x4B637E8F PUSH1 0xE1 SHL DUP2 MSTORE PUSH1 0x0 PUSH1 0x4 DUP3 ADD MSTORE PUSH1 0x24 SWAP1 REVERT JUMPDEST ISZERO PUSH2 0x1B12 JUMPI JUMP JUMPDEST PUSH1 0x40 MLOAD PUSH3 0x461BCD PUSH1 0xE5 SHL DUP2 MSTORE PUSH1 0x20 PUSH1 0x4 DUP3 ADD MSTORE PUSH1 0x12 PUSH1 0x24 DUP3 ADD MSTORE PUSH18 0x105B1C9958591E481CDD589CD8DC9A589959 PUSH1 0x72 SHL PUSH1 0x44 DUP3 ADD MSTORE PUSH1 0x64 SWAP1 REVERT JUMPDEST SWAP1 DUP2 PUSH1 0x20 SWAP2 SUB SLT PUSH2 0x18ED JUMPI MLOAD DUP1 ISZERO ISZERO DUP2 SUB PUSH2 0x18ED JUMPI SWAP1 JUMP JUMPDEST ISZERO PUSH2 0x1B6B JUMPI JUMP JUMPDEST PUSH1 0x40 MLOAD PUSH3 0x461BCD PUSH1 0xE5 SHL DUP2 MSTORE PUSH1 0x20 PUSH1 0x4 DUP3 ADD MSTORE PUSH1 0xE PUSH1 0x24 DUP3 ADD MSTORE PUSH14 0x14185E5B595B9D0819985A5B1959 PUSH1 0x92 SHL PUSH1 0x44 DUP3 ADD MSTORE PUSH1 0x64 SWAP1 REVERT JUMPDEST PUSH1 0x2 PUSH1 0x6 SLOAD EQ PUSH2 0x1BB2 JUMPI PUSH1 0x2 PUSH1 0x6 SSTORE JUMP JUMPDEST PUSH1 0x40 MLOAD PUSH4 0x3EE5AEB5 PUSH1 0xE0 SHL DUP2 MSTORE PUSH1 0x4 SWAP1 REVERT JUMPDEST PUSH1 0x0 NOT DUP2 EQ PUSH2 0x1BD3 JUMPI PUSH1 0x1 ADD SWAP1 JUMP JUMPDEST PUSH4 0x4E487B71 PUSH1 0xE0 SHL PUSH1 0x0 MSTORE PUSH1 0x11 PUSH1 0x4 MSTORE PUSH1 0x24 PUSH1 0x0 REVERT JUMPDEST ISZERO PUSH2 0x1BF0 JUMPI JUMP JUMPDEST PUSH1 0x40 MLOAD PUSH3 0x461BCD PUSH1 0xE5 SHL DUP2 MSTORE PUSH1 0x20 PUSH1 0x4 DUP3 ADD MSTORE PUSH1 0x14 PUSH1 0x24 DUP3 ADD MSTORE PUSH20 0x14DD589CD8DC9A5C1D1A5BDB88195E1C1A5C9959 PUSH1 0x62 SHL PUSH1 0x44 DUP3 ADD MSTORE PUSH1 0x64 SWAP1 REVERT JUMPDEST ISZERO PUSH2 0x1C33 JUMPI JUMP JUMPDEST PUSH1 0x40 MLOAD PUSH3 0x461BCD PUSH1 0xE5 SHL DUP2 MSTORE PUSH1 0x20 PUSH1 0x4 DUP3 ADD MSTORE PUSH1 0x13 PUSH1 0x24 DUP3 ADD MSTORE PUSH19 0x426C6F636B20616C7265616479207573656421 PUSH1 0x68 SHL PUSH1 0x44 DUP3 ADD MSTORE PUSH1 0x64 SWAP1 REVERT JUMPDEST PUSH1 0x13 SLOAD PUSH9 0x10000000000000000 DUP2 LT ISZERO PUSH2 0x1978 JUMPI DUP1 PUSH1 0x1 PUSH2 0x1C92 SWAP3 ADD PUSH1 0x13 SSTORE PUSH2 0x19B0 JUMP JUMPDEST PUSH2 0x1CEE JUMPI PUSH1 0x4 PUSH1 0x80 SWAP2 DUP4 MLOAD DUP2 SSTORE PUSH1 0x20 DUP5 ADD MLOAD PUSH1 0x1 DUP3 ADD SSTORE PUSH1 0x2 DUP2 ADD PUSH1 0x1 DUP1 PUSH1 0xA0 SHL SUB PUSH1 0x40 DUP7 ADD MLOAD AND PUSH12 0xFFFFFFFFFFFFFFFFFFFFFFFF PUSH1 0xA0 SHL DUP3 SLOAD AND OR SWAP1 SSTORE PUSH1 0x60 DUP5 ADD MLOAD PUSH1 0x3 DUP3 ADD SSTORE ADD SWAP2 ADD MLOAD ISZERO ISZERO PUSH1 0xFF DUP1 NOT DUP4 SLOAD AND SWAP2 AND OR SWAP1 SSTORE JUMP JUMPDEST PUSH4 0x4E487B71 PUSH1 0xE0 SHL PUSH1 0x0 MSTORE PUSH1 0x0 PUSH1 0x4 MSTORE PUSH1 0x24 PUSH1 0x0 REVERT JUMPDEST ISZERO PUSH2 0x1D0B JUMPI JUMP JUMPDEST PUSH1 0x40 MLOAD PUSH3 0x461BCD PUSH1 0xE5 SHL DUP2 MSTORE PUSH1 0x20 PUSH1 0x4 DUP3 ADD MSTORE PUSH1 0xE PUSH1 0x24 DUP3 ADD MSTORE PUSH14 0x82E4E4C2F240DAD2E6DAC2E8C6D PUSH1 0x93 SHL PUSH1 0x44 DUP3 ADD MSTORE PUSH1 0x64 SWAP1 REVERT JUMPDEST SWAP2 SWAP1 DUP2 LT ISZERO PUSH2 0x19EB JUMPI PUSH1 0x5 SHL ADD SWAP1 JUMP JUMPDEST ISZERO PUSH2 0x1D58 JUMPI JUMP JUMPDEST PUSH1 0x40 MLOAD PUSH3 0x461BCD PUSH1 0xE5 SHL DUP2 MSTORE PUSH1 0x20 PUSH1 0x4 DUP3 ADD MSTORE PUSH1 0x13 PUSH1 0x24 DUP3 ADD MSTORE PUSH19 0x13585E081CDD5C1C1B1E48195E18D959591959 PUSH1 0x6A SHL PUSH1 0x44 DUP3 ADD MSTORE PUSH1 0x64 SWAP1 REVERT JUMPDEST PUSH1 0x1 PUSH1 0x1 PUSH1 0xA0 SHL SUB AND DUP1 ISZERO PUSH2 0x1AD9 JUMPI PUSH1 0x2 SLOAD PUSH9 0x2B5E3AF16B1880000 DUP1 DUP3 ADD DUP1 SWAP3 GT PUSH2 0x1BD3 JUMPI PUSH1 0x20 PUSH32 0xDDF252AD1BE2C89B69C2B068FC378DAA952BA7F163C4A11628F55A4DF523B3EF SWAP2 PUSH1 0x0 SWAP4 PUSH1 0x2 SSTORE DUP5 DUP5 MSTORE DUP4 DUP3 MSTORE PUSH1 0x40 DUP5 KECCAK256 DUP2 DUP2 SLOAD ADD SWAP1 SSTORE PUSH1 0x40 MLOAD SWAP1 DUP2 MSTORE LOG3 JUMP JUMPDEST ISZERO PUSH2 0x1E03 JUMPI JUMP JUMPDEST PUSH1 0x40 MLOAD PUSH3 0x461BCD PUSH1 0xE5 SHL DUP2 MSTORE PUSH1 0x20 PUSH1 0x4 DUP3 ADD MSTORE PUSH1 0xD PUSH1 0x24 DUP3 ADD MSTORE PUSH13 0x92DCECC2D8D2C840D2DCC8CAF PUSH1 0x9B SHL PUSH1 0x44 DUP3 ADD MSTORE PUSH1 0x64 SWAP1 REVERT JUMPDEST ISZERO PUSH2 0x1E3F JUMPI JUMP JUMPDEST PUSH1 0x40 MLOAD PUSH3 0x461BCD PUSH1 0xE5 SHL DUP2 MSTORE PUSH1 0x20 PUSH1 0x4 DUP3 ADD MSTORE PUSH1 0xD PUSH1 0x24 DUP3 ADD MSTORE PUSH13 0x2737BA103A34329036B4B732B9 PUSH1 0x99 SHL PUSH1 0x44 DUP3 ADD MSTORE PUSH1 0x64 SWAP1 REVERT JUMPDEST ISZERO PUSH2 0x1E7B JUMPI JUMP JUMPDEST PUSH1 0x40 MLOAD PUSH3 0x461BCD PUSH1 0xE5 SHL DUP2 MSTORE PUSH1 0x20 PUSH1 0x4 DUP3 ADD MSTORE PUSH1 0xF PUSH1 0x24 DUP3 ADD MSTORE PUSH15 0x105B1C9958591E4818DB185A5B5959 PUSH1 0x8A SHL PUSH1 0x44 DUP3 ADD MSTORE PUSH1 0x64 SWAP1 REVERT INVALID 0x24 0xB5 0xEF 0xA6 SAR 0xD1 0xCF 0xC6 MSIZE KECCAK256 GAS SWAP8 0xFB DUP15 0xD8 PUSH9 0xF3CB8C81922BAB2B96 TIMESTAMP RETURNDATACOPY 0x5D 0xE1 0xDE 0x2C 0xB7 LOG2 PUSH5 0x6970667358 0x22 SLT KECCAK256 ADDRESS DIV 0xD2 DUP6 SWAP5 SUB DUP4 0xA9 MSIZE 0xEA RETURNDATACOPY CALLER 0xB2 SDIV SGT JUMP CALLER 0xD6 0xB1 0xF7 0xF8 DUP12 0xD7 MLOAD 0x2B BLOCKHASH 0xB7 CALLDATACOPY 0xFC 0xCF 0xCA 0x2D PUSH5 0x736F6C6343 STOP ADDMOD EQ STOP CALLER "},"methodIdentifiers":{"BLOCK_REWARD()":"7f05b9ef","MAX_SUPPLY()":"32cb6b0c","allowance(address,address)":"dd62ed3e","approve(address,uint256)":"095ea7b3","balanceOf(address)":"70a08231","basicDailyRate()":"dcf600c1","blockAlreadyUsed(address,uint256)":"23266fbd","blockHistory(uint256)":"de250ace","claimMultipleRewards(uint256[])":"729d0a8a","claimReward(uint256)":"ae169a50","confirmationThreshold()":"fceb17eb","decimals()":"313ce567","defaultDifficulty()":"04593adc","getBlockHistoryLength()":"6d18a84a","getSubscriptionInfo(address)":"f804bb0e","lifetimeLimit()":"243d4008","lifetimePrice()":"0c6d7b8e","lifetimeSold()":"d4365cd2","name()":"06fdde03","owner()":"8da5cb5b","ownerWithdrawSubscriptionFunds(uint256)":"af1966b7","paymentToken()":"3013ce29","premiumDailyRate()":"0515b9b0","purchaseLifetimeSubscription()":"ec74663d","purchaseSubscription(uint8,uint256)":"eaaa2d97","renounceOwnership()":"715018a6","serverSubmitMultipleMinedBlocksAndMintOnBehalf(address,uint256[],uint256[])":"ed47effd","setDifficulty(uint256)":"602512e1","standardDailyRate()":"07572eac","submitMinedBlock(uint256,uint256)":"11479763","submitMultipleMinedBlocksAndMint(uint256[],uint256[])":"a5ee6c3e","subscriptionActiveFor(address)":"deb6b462","subscriptions(address)":"f046395a","symbol()":"95d89b41","tokenLogoURI()":"8820a08e","totalSupply()":"18160ddd","transfer(address,uint256)":"a9059cbb","transferFrom(address,address,uint256)":"23b872dd","transferOwnership(address)":"f2fde38b","userPlan(address)":"50e0cdf4"}}}}}