{"contracts/ShareCoinStaking.sol":{"ShareCoinStaking":{"abi":[{"inputs":[{"internalType":"address","name":"_stakingToken","type":"address"},{"internalType":"address","name":"_rewardToken","type":"address"},{"internalType":"uint256","name":"_rewardRate","type":"uint256"}],"stateMutability":"nonpayable","type":"constructor"},{"inputs":[{"internalType":"address","name":"owner","type":"address"}],"name":"OwnableInvalidOwner","type":"error"},{"inputs":[{"internalType":"address","name":"account","type":"address"}],"name":"OwnableUnauthorizedAccount","type":"error"},{"inputs":[],"name":"ReentrancyGuardReentrantCall","type":"error"},{"anonymous":false,"inputs":[{"indexed":true,"internalType":"address","name":"previousOwner","type":"address"},{"indexed":true,"internalType":"address","name":"newOwner","type":"address"}],"name":"OwnershipTransferred","type":"event"},{"anonymous":false,"inputs":[{"indexed":true,"internalType":"address","name":"user","type":"address"},{"indexed":false,"internalType":"uint256","name":"reward","type":"uint256"}],"name":"RewardClaimed","type":"event"},{"anonymous":false,"inputs":[{"indexed":false,"internalType":"uint256","name":"newRewardRate","type":"uint256"}],"name":"RewardRateUpdated","type":"event"},{"anonymous":false,"inputs":[{"indexed":true,"internalType":"address","name":"user","type":"address"},{"indexed":false,"internalType":"uint256","name":"amount","type":"uint256"}],"name":"Staked","type":"event"},{"anonymous":false,"inputs":[{"indexed":true,"internalType":"address","name":"user","type":"address"},{"indexed":false,"internalType":"uint256","name":"amount","type":"uint256"},{"indexed":false,"internalType":"uint256","name":"reward","type":"uint256"}],"name":"Unstaked","type":"event"},{"inputs":[{"internalType":"address","name":"user","type":"address"}],"name":"balanceOf","outputs":[{"internalType":"uint256","name":"","type":"uint256"}],"stateMutability":"view","type":"function"},{"inputs":[],"name":"claimReward","outputs":[],"stateMutability":"nonpayable","type":"function"},{"inputs":[{"internalType":"address","name":"user","type":"address"}],"name":"earned","outputs":[{"internalType":"uint256","name":"","type":"uint256"}],"stateMutability":"view","type":"function"},{"inputs":[{"internalType":"address","name":"user","type":"address"}],"name":"getUserStakeInfo","outputs":[{"internalType":"uint256","name":"staked","type":"uint256"},{"internalType":"uint256","name":"pendingRewards","type":"uint256"}],"stateMutability":"view","type":"function"},{"inputs":[],"name":"owner","outputs":[{"internalType":"address","name":"","type":"address"}],"stateMutability":"view","type":"function"},{"inputs":[],"name":"renounceOwnership","outputs":[],"stateMutability":"nonpayable","type":"function"},{"inputs":[],"name":"rewardRate","outputs":[{"internalType":"uint256","name":"","type":"uint256"}],"stateMutability":"view","type":"function"},{"inputs":[],"name":"rewardToken","outputs":[{"internalType":"contract ERC20","name":"","type":"address"}],"stateMutability":"view","type":"function"},{"inputs":[{"internalType":"uint256","name":"amount","type":"uint256"}],"name":"stakeTokens","outputs":[],"stateMutability":"nonpayable","type":"function"},{"inputs":[{"internalType":"address","name":"","type":"address"}],"name":"stakes","outputs":[{"internalType":"uint256","name":"amount","type":"uint256"},{"internalType":"uint256","name":"rewardDebt","type":"uint256"},{"internalType":"uint256","name":"lastUpdate","type":"uint256"}],"stateMutability":"view","type":"function"},{"inputs":[],"name":"stakingToken","outputs":[{"internalType":"contract ERC20","name":"","type":"address"}],"stateMutability":"view","type":"function"},{"inputs":[],"name":"totalStaked","outputs":[{"internalType":"uint256","name":"","type":"uint256"}],"stateMutability":"view","type":"function"},{"inputs":[{"internalType":"address","name":"newOwner","type":"address"}],"name":"transferOwnership","outputs":[],"stateMutability":"nonpayable","type":"function"},{"inputs":[{"internalType":"uint256","name":"amount","type":"uint256"}],"name":"unstakeTokens","outputs":[],"stateMutability":"nonpayable","type":"function"},{"inputs":[{"internalType":"uint256","name":"_newRewardRate","type":"uint256"}],"name":"updateRewardRate","outputs":[],"stateMutability":"nonpayable","type":"function"}],"evm":{"bytecode":{"linkReferences":{},"object":"60c0346101a757601f610da438819003918201601f191683019291906001600160401b038411838510176101ac5781606092849260409687528339810103126101a75761004b816101c2565b9082610059602083016101c2565b91015191331561018f5760008054336001600160a01b03198216811783558651946001600160a01b0394909385939192918416907f8be0079c531659141344cd1fd0a4f28419497f9722a3daafe3b4186f6b6457e09080a3600180551692831561014d5750169081156101095760805260a05260025551610bcd90816101d782396080518181816104a8015281816105f60152610753015260a05181818160da015281816102bc01526107b10152f35b835162461bcd60e51b815260206004820152601460248201527f496e76616c69642072657761726420746f6b656e0000000000000000000000006044820152606490fd5b62461bcd60e51b815260206004820152601560248201527f496e76616c6964207374616b696e6720746f6b656e00000000000000000000006044820152606490fd5b8351631e4fbdf760e01b815260006004820152602490fd5b600080fd5b634e487b7160e01b600052604160045260246000fd5b51906001600160a01b03821682036101a75756fe6040608081526004908136101561001557600080fd5b600091823560e01c9081628cc2621461093857816316934fc4146108e8578163608e4dd0146106bc57816370a0823114610682578163715018a61461062557816372f702f3146105e15781637547c7a3146104525781637b0a47ee14610433578163817b1cd2146104145781638da5cb5b146103ec5781639ef3a2611461039e578163b88a802f1461024c578163c32d3ae2146101a0578163f2fde38b1461010d575063f7c618c1146100c757600080fd5b34610109578160031936011261010957517f00000000000000000000000000000000000000000000000000000000000000006001600160a01b03168152602090f35b5080fd5b9190503461019c57602036600319011261019c576001600160a01b0382358181169391929084900361019857610141610970565b831561018257505082546001600160a01b0319811683178455167f8be0079c531659141344cd1fd0a4f28419497f9722a3daafe3b4186f6b6457e08380a380f35b51631e4fbdf760e01b8152908101849052602490fd5b8480fd5b8280fd5b839150346101095760203660031901126101095780356001600160a01b0381169081900361019c57825260205261020b8282209183516101df8161099c565b835491828252600260018601549560208401968752015490818784015292610217575b50519251610a0d565b82519182526020820152f35b670de0b6b3a764000091925061023b6102336102449242610a53565b845190610a60565b60025490610a60565b049085610202565b90503461019c578260031936011261019c57610266610a30565b61026f33610a73565b3383526020818152600183852001549182156103675733808652818352848620600101869055845163a9059cbb60e01b8152918201908152602081018490528290829081906040010381887f00000000000000000000000000000000000000000000000000000000000000006001600160a01b03165af190811561035d577f106f923f993c2149d49b4255ff723acafa1f2d94393f561d3eda32ae348f7241939491610322918791610330575b50610ad6565b519283523392a26001805580f35b6103509150843d8611610356575b61034881836109ce565b8101906109f0565b3861031c565b503d61033e565b84513d87823e3d90fd5b60649184519162461bcd60e51b835282015260136024820152724e6f207265776172647320746f20636c61696d60681b6044820152fd5b90503461019c57602036600319011261019c577f41d466ebd06fb97e7786086ac8b69b7eb7da798592036251291d34e9791cde019160209135906103e0610970565b8160025551908152a180f35b505034610109578160031936011261010957905490516001600160a01b039091168152602090f35b5050346101095781600319360112610109576020906003549051908152f35b5050346101095781600319360112610109576020906002549051908152f35b9190503461019c57602090816003193601126105dd57823592610473610a30565b831561059c5761048233610a73565b81516323b872dd60e01b81523382820152306024820152604481018590528381606481897f00000000000000000000000000000000000000000000000000000000000000006001600160a01b03165af1908115610592578691610575575b501561053c57907f9e71bc8eea02a63969f509818f2dafb9254532904319f9dbda79b67bd34a5f3d9291338652825280852061051d858254610a0d565b905561052b84600354610a0d565b600355519283523392a26001805580f35b82606492519162461bcd60e51b83528201526015602482015274151bdad95b881d1c985b9cd9995c8819985a5b1959605a1b6044820152fd5b61058c9150843d86116103565761034881836109ce565b386104e0565b83513d88823e3d90fd5b82606492519162461bcd60e51b8352820152601860248201527f43616e6e6f74207374616b65207a65726f20746f6b656e7300000000000000006044820152fd5b8380fd5b505034610109578160031936011261010957517f00000000000000000000000000000000000000000000000000000000000000006001600160a01b03168152602090f35b833461067f578060031936011261067f5761063e610970565b80546001600160a01b03198116825581906001600160a01b03167f8be0079c531659141344cd1fd0a4f28419497f9722a3daafe3b4186f6b6457e08280a380f35b80fd5b90503461019c57602036600319011261019c5780356001600160a01b038116908190036105dd579282916020948252845220549051908152f35b838334610109576020908160031936011261019c578335916106dc610a30565b338452848152818420838154106108a5576001906106f933610a73565b610704858254610a53565b815561071285600354610a53565b60035501805490859055825163a9059cbb60e01b80825233888301908152602081018790526001600160a01b0398939493929084908290819003604001818b7f00000000000000000000000000000000000000000000000000000000000000008e165af190811561089b57889161087e575b501561083c57845190815233918101918252602082018490529596829187919082908a90829060400103927f0000000000000000000000000000000000000000000000000000000000000000165af1948515610592577f7fc4727e062e336010f2c282598ef5f14facb3de68cf8195c2f23e1454b2b74e949561080d91889161081f5750610ad6565b82519485528401523392a26001805580f35b6108369150833d85116103565761034881836109ce565b8861031c565b5060649184519162461bcd60e51b8352820152601760248201527f556e7374616b65207472616e73666572206661696c65640000000000000000006044820152fd5b6108959150843d86116103565761034881836109ce565b89610784565b86513d8a823e3d90fd5b825162461bcd60e51b8152808701839052601a60248201527f496e73756666696369656e74207374616b656420616d6f756e740000000000006044820152606490fd5b90503461019c57602036600319011261019c5780356001600160a01b038116908190036105dd57928291606094825260205220805491600260018301549201549181519384526020840152820152f35b90503461019c57602036600319011261019c5735916001600160a01b038316830361067f5750610969602092610b1b565b9051908152f35b6000546001600160a01b0316330361098457565b60405163118cdaa760e01b8152336004820152602490fd5b6060810190811067ffffffffffffffff8211176109b857604052565b634e487b7160e01b600052604160045260246000fd5b90601f8019910116810190811067ffffffffffffffff8211176109b857604052565b90816020910312610a0857518015158103610a085790565b600080fd5b91908201809211610a1a57565b634e487b7160e01b600052601160045260246000fd5b600260015414610a41576002600155565b604051633ee5aeb560e01b8152600490fd5b91908203918211610a1a57565b81810292918115918404141715610a1a57565b6001600160a01b03166000908152600460205260409020805480610a9b575b50600242910155565b610abe61023b670de0b6b3a764000092610ab9600286015442610a53565b610a60565b04610ace60018301918254610a0d565b905538610a92565b15610add57565b60405162461bcd60e51b815260206004820152601660248201527514995dd85c99081d1c985b9cd9995c8819985a5b195960521b6044820152606490fd5b60018060a01b03166000526004602052604060002060405190610b3d8261099c565b805480835260018201546002602085019382855201549182604086015215610b905750610b8561023b610b8d94610b7d670de0b6b3a76400009442610a53565b905190610a60565b049051610a0d565b90565b925050509056fea26469706673582212202bbf3ed3bedba8df8d918543b3e00b4fcedf07b01a866f7cd79e48cf83c3d3a964736f6c63430008140033","opcodes":"PUSH1 0xC0 CALLVALUE PUSH2 0x1A7 JUMPI PUSH1 0x1F PUSH2 0xDA4 CODESIZE DUP2 SWAP1 SUB SWAP2 DUP3 ADD PUSH1 0x1F NOT AND DUP4 ADD SWAP3 SWAP2 SWAP1 PUSH1 0x1 PUSH1 0x1 PUSH1 0x40 SHL SUB DUP5 GT DUP4 DUP6 LT OR PUSH2 0x1AC JUMPI DUP2 PUSH1 0x60 SWAP3 DUP5 SWAP3 PUSH1 0x40 SWAP7 DUP8 MSTORE DUP4 CODECOPY DUP2 ADD SUB SLT PUSH2 0x1A7 JUMPI PUSH2 0x4B DUP2 PUSH2 0x1C2 JUMP JUMPDEST SWAP1 DUP3 PUSH2 0x59 PUSH1 0x20 DUP4 ADD PUSH2 0x1C2 JUMP JUMPDEST SWAP2 ADD MLOAD SWAP2 CALLER ISZERO PUSH2 0x18F JUMPI PUSH1 0x0 DUP1 SLOAD CALLER PUSH1 0x1 PUSH1 0x1 PUSH1 0xA0 SHL SUB NOT DUP3 AND DUP2 OR DUP4 SSTORE DUP7 MLOAD SWAP5 PUSH1 0x1 PUSH1 0x1 PUSH1 0xA0 SHL SUB SWAP5 SWAP1 SWAP4 DUP6 SWAP4 SWAP2 SWAP3 SWAP2 DUP5 AND SWAP1 PUSH32 0x8BE0079C531659141344CD1FD0A4F28419497F9722A3DAAFE3B4186F6B6457E0 SWAP1 DUP1 LOG3 PUSH1 0x1 DUP1 SSTORE AND SWAP3 DUP4 ISZERO PUSH2 0x14D JUMPI POP AND SWAP1 DUP2 ISZERO PUSH2 0x109 JUMPI PUSH1 0x80 MSTORE PUSH1 0xA0 MSTORE PUSH1 0x2 SSTORE MLOAD PUSH2 0xBCD SWAP1 DUP2 PUSH2 0x1D7 DUP3 CODECOPY PUSH1 0x80 MLOAD DUP2 DUP2 DUP2 PUSH2 0x4A8 ADD MSTORE DUP2 DUP2 PUSH2 0x5F6 ADD MSTORE PUSH2 0x753 ADD MSTORE PUSH1 0xA0 MLOAD DUP2 DUP2 DUP2 PUSH1 0xDA ADD MSTORE DUP2 DUP2 PUSH2 0x2BC ADD MSTORE PUSH2 0x7B1 ADD MSTORE RETURN JUMPDEST DUP4 MLOAD PUSH3 0x461BCD PUSH1 0xE5 SHL DUP2 MSTORE PUSH1 0x20 PUSH1 0x4 DUP3 ADD MSTORE PUSH1 0x14 PUSH1 0x24 DUP3 ADD MSTORE PUSH32 0x496E76616C69642072657761726420746F6B656E000000000000000000000000 PUSH1 0x44 DUP3 ADD MSTORE PUSH1 0x64 SWAP1 REVERT JUMPDEST PUSH3 0x461BCD PUSH1 0xE5 SHL DUP2 MSTORE PUSH1 0x20 PUSH1 0x4 DUP3 ADD MSTORE PUSH1 0x15 PUSH1 0x24 DUP3 ADD MSTORE PUSH32 0x496E76616C6964207374616B696E6720746F6B656E0000000000000000000000 PUSH1 0x44 DUP3 ADD MSTORE PUSH1 0x64 SWAP1 REVERT JUMPDEST DUP4 MLOAD PUSH4 0x1E4FBDF7 PUSH1 0xE0 SHL DUP2 MSTORE PUSH1 0x0 PUSH1 0x4 DUP3 ADD MSTORE PUSH1 0x24 SWAP1 REVERT JUMPDEST PUSH1 0x0 DUP1 REVERT JUMPDEST PUSH4 0x4E487B71 PUSH1 0xE0 SHL PUSH1 0x0 MSTORE PUSH1 0x41 PUSH1 0x4 MSTORE PUSH1 0x24 PUSH1 0x0 REVERT JUMPDEST MLOAD SWAP1 PUSH1 0x1 PUSH1 0x1 PUSH1 0xA0 SHL SUB DUP3 AND DUP3 SUB PUSH2 0x1A7 JUMPI JUMP INVALID PUSH1 0x40 PUSH1 0x80 DUP2 MSTORE PUSH1 0x4 SWAP1 DUP2 CALLDATASIZE LT ISZERO PUSH2 0x15 JUMPI PUSH1 0x0 DUP1 REVERT JUMPDEST PUSH1 0x0 SWAP2 DUP3 CALLDATALOAD PUSH1 0xE0 SHR SWAP1 DUP2 PUSH3 0x8CC262 EQ PUSH2 0x938 JUMPI DUP2 PUSH4 0x16934FC4 EQ PUSH2 0x8E8 JUMPI DUP2 PUSH4 0x608E4DD0 EQ PUSH2 0x6BC JUMPI DUP2 PUSH4 0x70A08231 EQ PUSH2 0x682 JUMPI DUP2 PUSH4 0x715018A6 EQ PUSH2 0x625 JUMPI DUP2 PUSH4 0x72F702F3 EQ PUSH2 0x5E1 JUMPI DUP2 PUSH4 0x7547C7A3 EQ PUSH2 0x452 JUMPI DUP2 PUSH4 0x7B0A47EE EQ PUSH2 0x433 JUMPI DUP2 PUSH4 0x817B1CD2 EQ PUSH2 0x414 JUMPI DUP2 PUSH4 0x8DA5CB5B EQ PUSH2 0x3EC JUMPI DUP2 PUSH4 0x9EF3A261 EQ PUSH2 0x39E JUMPI DUP2 PUSH4 0xB88A802F EQ PUSH2 0x24C JUMPI DUP2 PUSH4 0xC32D3AE2 EQ PUSH2 0x1A0 JUMPI DUP2 PUSH4 0xF2FDE38B EQ PUSH2 0x10D JUMPI POP PUSH4 0xF7C618C1 EQ PUSH2 0xC7 JUMPI PUSH1 0x0 DUP1 REVERT JUMPDEST CALLVALUE PUSH2 0x109 JUMPI DUP2 PUSH1 0x3 NOT CALLDATASIZE ADD SLT PUSH2 0x109 JUMPI MLOAD PUSH32 0x0 PUSH1 0x1 PUSH1 0x1 PUSH1 0xA0 SHL SUB AND DUP2 MSTORE PUSH1 0x20 SWAP1 RETURN JUMPDEST POP DUP1 REVERT JUMPDEST SWAP2 SWAP1 POP CALLVALUE PUSH2 0x19C JUMPI PUSH1 0x20 CALLDATASIZE PUSH1 0x3 NOT ADD SLT PUSH2 0x19C JUMPI PUSH1 0x1 PUSH1 0x1 PUSH1 0xA0 SHL SUB DUP3 CALLDATALOAD DUP2 DUP2 AND SWAP4 SWAP2 SWAP3 SWAP1 DUP5 SWAP1 SUB PUSH2 0x198 JUMPI PUSH2 0x141 PUSH2 0x970 JUMP JUMPDEST DUP4 ISZERO PUSH2 0x182 JUMPI POP POP DUP3 SLOAD PUSH1 0x1 PUSH1 0x1 PUSH1 0xA0 SHL SUB NOT DUP2 AND DUP4 OR DUP5 SSTORE AND PUSH32 0x8BE0079C531659141344CD1FD0A4F28419497F9722A3DAAFE3B4186F6B6457E0 DUP4 DUP1 LOG3 DUP1 RETURN JUMPDEST MLOAD PUSH4 0x1E4FBDF7 PUSH1 0xE0 SHL DUP2 MSTORE SWAP1 DUP2 ADD DUP5 SWAP1 MSTORE PUSH1 0x24 SWAP1 REVERT JUMPDEST DUP5 DUP1 REVERT JUMPDEST DUP3 DUP1 REVERT JUMPDEST DUP4 SWAP2 POP CALLVALUE PUSH2 0x109 JUMPI PUSH1 0x20 CALLDATASIZE PUSH1 0x3 NOT ADD SLT PUSH2 0x109 JUMPI DUP1 CALLDATALOAD PUSH1 0x1 PUSH1 0x1 PUSH1 0xA0 SHL SUB DUP2 AND SWAP1 DUP2 SWAP1 SUB PUSH2 0x19C JUMPI DUP3 MSTORE PUSH1 0x20 MSTORE PUSH2 0x20B DUP3 DUP3 KECCAK256 SWAP2 DUP4 MLOAD PUSH2 0x1DF DUP2 PUSH2 0x99C JUMP JUMPDEST DUP4 SLOAD SWAP2 DUP3 DUP3 MSTORE PUSH1 0x2 PUSH1 0x1 DUP7 ADD SLOAD SWAP6 PUSH1 0x20 DUP5 ADD SWAP7 DUP8 MSTORE ADD SLOAD SWAP1 DUP2 DUP8 DUP5 ADD MSTORE SWAP3 PUSH2 0x217 JUMPI JUMPDEST POP MLOAD SWAP3 MLOAD PUSH2 0xA0D JUMP JUMPDEST DUP3 MLOAD SWAP2 DUP3 MSTORE PUSH1 0x20 DUP3 ADD MSTORE RETURN JUMPDEST PUSH8 0xDE0B6B3A7640000 SWAP2 SWAP3 POP PUSH2 0x23B PUSH2 0x233 PUSH2 0x244 SWAP3 TIMESTAMP PUSH2 0xA53 JUMP JUMPDEST DUP5 MLOAD SWAP1 PUSH2 0xA60 JUMP JUMPDEST PUSH1 0x2 SLOAD SWAP1 PUSH2 0xA60 JUMP JUMPDEST DIV SWAP1 DUP6 PUSH2 0x202 JUMP JUMPDEST SWAP1 POP CALLVALUE PUSH2 0x19C JUMPI DUP3 PUSH1 0x3 NOT CALLDATASIZE ADD SLT PUSH2 0x19C JUMPI PUSH2 0x266 PUSH2 0xA30 JUMP JUMPDEST PUSH2 0x26F CALLER PUSH2 0xA73 JUMP JUMPDEST CALLER DUP4 MSTORE PUSH1 0x20 DUP2 DUP2 MSTORE PUSH1 0x1 DUP4 DUP6 KECCAK256 ADD SLOAD SWAP2 DUP3 ISZERO PUSH2 0x367 JUMPI CALLER DUP1 DUP7 MSTORE DUP2 DUP4 MSTORE DUP5 DUP7 KECCAK256 PUSH1 0x1 ADD DUP7 SWAP1 SSTORE DUP5 MLOAD PUSH4 0xA9059CBB PUSH1 0xE0 SHL DUP2 MSTORE SWAP2 DUP3 ADD SWAP1 DUP2 MSTORE PUSH1 0x20 DUP2 ADD DUP5 SWAP1 MSTORE DUP3 SWAP1 DUP3 SWAP1 DUP2 SWAP1 PUSH1 0x40 ADD SUB DUP2 DUP9 PUSH32 0x0 PUSH1 0x1 PUSH1 0x1 PUSH1 0xA0 SHL SUB AND GAS CALL SWAP1 DUP2 ISZERO PUSH2 0x35D JUMPI PUSH32 0x106F923F993C2149D49B4255FF723ACAFA1F2D94393F561D3EDA32AE348F7241 SWAP4 SWAP5 SWAP2 PUSH2 0x322 SWAP2 DUP8 SWAP2 PUSH2 0x330 JUMPI JUMPDEST POP PUSH2 0xAD6 JUMP JUMPDEST MLOAD SWAP3 DUP4 MSTORE CALLER SWAP3 LOG2 PUSH1 0x1 DUP1 SSTORE DUP1 RETURN JUMPDEST PUSH2 0x350 SWAP2 POP DUP5 RETURNDATASIZE DUP7 GT PUSH2 0x356 JUMPI JUMPDEST PUSH2 0x348 DUP2 DUP4 PUSH2 0x9CE JUMP JUMPDEST DUP2 ADD SWAP1 PUSH2 0x9F0 JUMP JUMPDEST CODESIZE PUSH2 0x31C JUMP JUMPDEST POP RETURNDATASIZE PUSH2 0x33E JUMP JUMPDEST DUP5 MLOAD RETURNDATASIZE DUP8 DUP3 RETURNDATACOPY RETURNDATASIZE SWAP1 REVERT JUMPDEST PUSH1 0x64 SWAP2 DUP5 MLOAD SWAP2 PUSH3 0x461BCD PUSH1 0xE5 SHL DUP4 MSTORE DUP3 ADD MSTORE PUSH1 0x13 PUSH1 0x24 DUP3 ADD MSTORE PUSH19 0x4E6F207265776172647320746F20636C61696D PUSH1 0x68 SHL PUSH1 0x44 DUP3 ADD MSTORE REVERT JUMPDEST SWAP1 POP CALLVALUE PUSH2 0x19C JUMPI PUSH1 0x20 CALLDATASIZE PUSH1 0x3 NOT ADD SLT PUSH2 0x19C JUMPI PUSH32 0x41D466EBD06FB97E7786086AC8B69B7EB7DA798592036251291D34E9791CDE01 SWAP2 PUSH1 0x20 SWAP2 CALLDATALOAD SWAP1 PUSH2 0x3E0 PUSH2 0x970 JUMP JUMPDEST DUP2 PUSH1 0x2 SSTORE MLOAD SWAP1 DUP2 MSTORE LOG1 DUP1 RETURN JUMPDEST POP POP CALLVALUE PUSH2 0x109 JUMPI DUP2 PUSH1 0x3 NOT CALLDATASIZE ADD SLT PUSH2 0x109 JUMPI SWAP1 SLOAD SWAP1 MLOAD PUSH1 0x1 PUSH1 0x1 PUSH1 0xA0 SHL SUB SWAP1 SWAP2 AND DUP2 MSTORE PUSH1 0x20 SWAP1 RETURN JUMPDEST POP POP CALLVALUE PUSH2 0x109 JUMPI DUP2 PUSH1 0x3 NOT CALLDATASIZE ADD SLT PUSH2 0x109 JUMPI PUSH1 0x20 SWAP1 PUSH1 0x3 SLOAD SWAP1 MLOAD SWAP1 DUP2 MSTORE RETURN JUMPDEST POP POP CALLVALUE PUSH2 0x109 JUMPI DUP2 PUSH1 0x3 NOT CALLDATASIZE ADD SLT PUSH2 0x109 JUMPI PUSH1 0x20 SWAP1 PUSH1 0x2 SLOAD SWAP1 MLOAD SWAP1 DUP2 MSTORE RETURN JUMPDEST SWAP2 SWAP1 POP CALLVALUE PUSH2 0x19C JUMPI PUSH1 0x20 SWAP1 DUP2 PUSH1 0x3 NOT CALLDATASIZE ADD SLT PUSH2 0x5DD JUMPI DUP3 CALLDATALOAD SWAP3 PUSH2 0x473 PUSH2 0xA30 JUMP JUMPDEST DUP4 ISZERO PUSH2 0x59C JUMPI PUSH2 0x482 CALLER PUSH2 0xA73 JUMP JUMPDEST DUP2 MLOAD PUSH4 0x23B872DD PUSH1 0xE0 SHL DUP2 MSTORE CALLER DUP3 DUP3 ADD MSTORE ADDRESS PUSH1 0x24 DUP3 ADD MSTORE PUSH1 0x44 DUP2 ADD DUP6 SWAP1 MSTORE DUP4 DUP2 PUSH1 0x64 DUP2 DUP10 PUSH32 0x0 PUSH1 0x1 PUSH1 0x1 PUSH1 0xA0 SHL SUB AND GAS CALL SWAP1 DUP2 ISZERO PUSH2 0x592 JUMPI DUP7 SWAP2 PUSH2 0x575 JUMPI JUMPDEST POP ISZERO PUSH2 0x53C JUMPI SWAP1 PUSH32 0x9E71BC8EEA02A63969F509818F2DAFB9254532904319F9DBDA79B67BD34A5F3D SWAP3 SWAP2 CALLER DUP7 MSTORE DUP3 MSTORE DUP1 DUP6 KECCAK256 PUSH2 0x51D DUP6 DUP3 SLOAD PUSH2 0xA0D JUMP JUMPDEST SWAP1 SSTORE PUSH2 0x52B DUP5 PUSH1 0x3 SLOAD PUSH2 0xA0D JUMP JUMPDEST PUSH1 0x3 SSTORE MLOAD SWAP3 DUP4 MSTORE CALLER SWAP3 LOG2 PUSH1 0x1 DUP1 SSTORE DUP1 RETURN JUMPDEST DUP3 PUSH1 0x64 SWAP3 MLOAD SWAP2 PUSH3 0x461BCD PUSH1 0xE5 SHL DUP4 MSTORE DUP3 ADD MSTORE PUSH1 0x15 PUSH1 0x24 DUP3 ADD MSTORE PUSH21 0x151BDAD95B881D1C985B9CD9995C8819985A5B1959 PUSH1 0x5A SHL PUSH1 0x44 DUP3 ADD MSTORE REVERT JUMPDEST PUSH2 0x58C SWAP2 POP DUP5 RETURNDATASIZE DUP7 GT PUSH2 0x356 JUMPI PUSH2 0x348 DUP2 DUP4 PUSH2 0x9CE JUMP JUMPDEST CODESIZE PUSH2 0x4E0 JUMP JUMPDEST DUP4 MLOAD RETURNDATASIZE DUP9 DUP3 RETURNDATACOPY RETURNDATASIZE SWAP1 REVERT JUMPDEST DUP3 PUSH1 0x64 SWAP3 MLOAD SWAP2 PUSH3 0x461BCD PUSH1 0xE5 SHL DUP4 MSTORE DUP3 ADD MSTORE PUSH1 0x18 PUSH1 0x24 DUP3 ADD MSTORE PUSH32 0x43616E6E6F74207374616B65207A65726F20746F6B656E730000000000000000 PUSH1 0x44 DUP3 ADD MSTORE REVERT JUMPDEST DUP4 DUP1 REVERT JUMPDEST POP POP CALLVALUE PUSH2 0x109 JUMPI DUP2 PUSH1 0x3 NOT CALLDATASIZE ADD SLT PUSH2 0x109 JUMPI MLOAD PUSH32 0x0 PUSH1 0x1 PUSH1 0x1 PUSH1 0xA0 SHL SUB AND DUP2 MSTORE PUSH1 0x20 SWAP1 RETURN JUMPDEST DUP4 CALLVALUE PUSH2 0x67F JUMPI DUP1 PUSH1 0x3 NOT CALLDATASIZE ADD SLT PUSH2 0x67F JUMPI PUSH2 0x63E PUSH2 0x970 JUMP JUMPDEST DUP1 SLOAD PUSH1 0x1 PUSH1 0x1 PUSH1 0xA0 SHL SUB NOT DUP2 AND DUP3 SSTORE DUP2 SWAP1 PUSH1 0x1 PUSH1 0x1 PUSH1 0xA0 SHL SUB AND PUSH32 0x8BE0079C531659141344CD1FD0A4F28419497F9722A3DAAFE3B4186F6B6457E0 DUP3 DUP1 LOG3 DUP1 RETURN JUMPDEST DUP1 REVERT JUMPDEST SWAP1 POP CALLVALUE PUSH2 0x19C JUMPI PUSH1 0x20 CALLDATASIZE PUSH1 0x3 NOT ADD SLT PUSH2 0x19C JUMPI DUP1 CALLDATALOAD PUSH1 0x1 PUSH1 0x1 PUSH1 0xA0 SHL SUB DUP2 AND SWAP1 DUP2 SWAP1 SUB PUSH2 0x5DD JUMPI SWAP3 DUP3 SWAP2 PUSH1 0x20 SWAP5 DUP3 MSTORE DUP5 MSTORE KECCAK256 SLOAD SWAP1 MLOAD SWAP1 DUP2 MSTORE RETURN JUMPDEST DUP4 DUP4 CALLVALUE PUSH2 0x109 JUMPI PUSH1 0x20 SWAP1 DUP2 PUSH1 0x3 NOT CALLDATASIZE ADD SLT PUSH2 0x19C JUMPI DUP4 CALLDATALOAD SWAP2 PUSH2 0x6DC PUSH2 0xA30 JUMP JUMPDEST CALLER DUP5 MSTORE DUP5 DUP2 MSTORE DUP2 DUP5 KECCAK256 DUP4 DUP2 SLOAD LT PUSH2 0x8A5 JUMPI PUSH1 0x1 SWAP1 PUSH2 0x6F9 CALLER PUSH2 0xA73 JUMP JUMPDEST PUSH2 0x704 DUP6 DUP3 SLOAD PUSH2 0xA53 JUMP JUMPDEST DUP2 SSTORE PUSH2 0x712 DUP6 PUSH1 0x3 SLOAD PUSH2 0xA53 JUMP JUMPDEST PUSH1 0x3 SSTORE ADD DUP1 SLOAD SWAP1 DUP6 SWAP1 SSTORE DUP3 MLOAD PUSH4 0xA9059CBB PUSH1 0xE0 SHL DUP1 DUP3 MSTORE CALLER DUP9 DUP4 ADD SWAP1 DUP2 MSTORE PUSH1 0x20 DUP2 ADD DUP8 SWAP1 MSTORE PUSH1 0x1 PUSH1 0x1 PUSH1 0xA0 SHL SUB SWAP9 SWAP4 SWAP5 SWAP4 SWAP3 SWAP1 DUP5 SWAP1 DUP3 SWAP1 DUP2 SWAP1 SUB PUSH1 0x40 ADD DUP2 DUP12 PUSH32 0x0 DUP15 AND GAS CALL SWAP1 DUP2 ISZERO PUSH2 0x89B JUMPI DUP9 SWAP2 PUSH2 0x87E JUMPI JUMPDEST POP ISZERO PUSH2 0x83C JUMPI DUP5 MLOAD SWAP1 DUP2 MSTORE CALLER SWAP2 DUP2 ADD SWAP2 DUP3 MSTORE PUSH1 0x20 DUP3 ADD DUP5 SWAP1 MSTORE SWAP6 SWAP7 DUP3 SWAP2 DUP8 SWAP2 SWAP1 DUP3 SWAP1 DUP11 SWAP1 DUP3 SWAP1 PUSH1 0x40 ADD SUB SWAP3 PUSH32 0x0 AND GAS CALL SWAP5 DUP6 ISZERO PUSH2 0x592 JUMPI PUSH32 0x7FC4727E062E336010F2C282598EF5F14FACB3DE68CF8195C2F23E1454B2B74E SWAP5 SWAP6 PUSH2 0x80D SWAP2 DUP9 SWAP2 PUSH2 0x81F JUMPI POP PUSH2 0xAD6 JUMP JUMPDEST DUP3 MLOAD SWAP5 DUP6 MSTORE DUP5 ADD MSTORE CALLER SWAP3 LOG2 PUSH1 0x1 DUP1 SSTORE DUP1 RETURN JUMPDEST PUSH2 0x836 SWAP2 POP DUP4 RETURNDATASIZE DUP6 GT PUSH2 0x356 JUMPI PUSH2 0x348 DUP2 DUP4 PUSH2 0x9CE JUMP JUMPDEST DUP9 PUSH2 0x31C JUMP JUMPDEST POP PUSH1 0x64 SWAP2 DUP5 MLOAD SWAP2 PUSH3 0x461BCD PUSH1 0xE5 SHL DUP4 MSTORE DUP3 ADD MSTORE PUSH1 0x17 PUSH1 0x24 DUP3 ADD MSTORE PUSH32 0x556E7374616B65207472616E73666572206661696C6564000000000000000000 PUSH1 0x44 DUP3 ADD MSTORE REVERT JUMPDEST PUSH2 0x895 SWAP2 POP DUP5 RETURNDATASIZE DUP7 GT PUSH2 0x356 JUMPI PUSH2 0x348 DUP2 DUP4 PUSH2 0x9CE JUMP JUMPDEST DUP10 PUSH2 0x784 JUMP JUMPDEST DUP7 MLOAD RETURNDATASIZE DUP11 DUP3 RETURNDATACOPY RETURNDATASIZE SWAP1 REVERT JUMPDEST DUP3 MLOAD PUSH3 0x461BCD PUSH1 0xE5 SHL DUP2 MSTORE DUP1 DUP8 ADD DUP4 SWAP1 MSTORE PUSH1 0x1A PUSH1 0x24 DUP3 ADD MSTORE PUSH32 0x496E73756666696369656E74207374616B656420616D6F756E74000000000000 PUSH1 0x44 DUP3 ADD MSTORE PUSH1 0x64 SWAP1 REVERT JUMPDEST SWAP1 POP CALLVALUE PUSH2 0x19C JUMPI PUSH1 0x20 CALLDATASIZE PUSH1 0x3 NOT ADD SLT PUSH2 0x19C JUMPI DUP1 CALLDATALOAD PUSH1 0x1 PUSH1 0x1 PUSH1 0xA0 SHL SUB DUP2 AND SWAP1 DUP2 SWAP1 SUB PUSH2 0x5DD JUMPI SWAP3 DUP3 SWAP2 PUSH1 0x60 SWAP5 DUP3 MSTORE PUSH1 0x20 MSTORE KECCAK256 DUP1 SLOAD SWAP2 PUSH1 0x2 PUSH1 0x1 DUP4 ADD SLOAD SWAP3 ADD SLOAD SWAP2 DUP2 MLOAD SWAP4 DUP5 MSTORE PUSH1 0x20 DUP5 ADD MSTORE DUP3 ADD MSTORE RETURN JUMPDEST SWAP1 POP CALLVALUE PUSH2 0x19C JUMPI PUSH1 0x20 CALLDATASIZE PUSH1 0x3 NOT ADD SLT PUSH2 0x19C JUMPI CALLDATALOAD SWAP2 PUSH1 0x1 PUSH1 0x1 PUSH1 0xA0 SHL SUB DUP4 AND DUP4 SUB PUSH2 0x67F JUMPI POP PUSH2 0x969 PUSH1 0x20 SWAP3 PUSH2 0xB1B JUMP JUMPDEST SWAP1 MLOAD SWAP1 DUP2 MSTORE RETURN JUMPDEST PUSH1 0x0 SLOAD PUSH1 0x1 PUSH1 0x1 PUSH1 0xA0 SHL SUB AND CALLER SUB PUSH2 0x984 JUMPI JUMP JUMPDEST PUSH1 0x40 MLOAD PUSH4 0x118CDAA7 PUSH1 0xE0 SHL DUP2 MSTORE CALLER PUSH1 0x4 DUP3 ADD MSTORE PUSH1 0x24 SWAP1 REVERT JUMPDEST PUSH1 0x60 DUP2 ADD SWAP1 DUP2 LT PUSH8 0xFFFFFFFFFFFFFFFF DUP3 GT OR PUSH2 0x9B8 JUMPI PUSH1 0x40 MSTORE JUMP JUMPDEST PUSH4 0x4E487B71 PUSH1 0xE0 SHL PUSH1 0x0 MSTORE PUSH1 0x41 PUSH1 0x4 MSTORE PUSH1 0x24 PUSH1 0x0 REVERT JUMPDEST SWAP1 PUSH1 0x1F DUP1 NOT SWAP2 ADD AND DUP2 ADD SWAP1 DUP2 LT PUSH8 0xFFFFFFFFFFFFFFFF DUP3 GT OR PUSH2 0x9B8 JUMPI PUSH1 0x40 MSTORE JUMP JUMPDEST SWAP1 DUP2 PUSH1 0x20 SWAP2 SUB SLT PUSH2 0xA08 JUMPI MLOAD DUP1 ISZERO ISZERO DUP2 SUB PUSH2 0xA08 JUMPI SWAP1 JUMP JUMPDEST PUSH1 0x0 DUP1 REVERT JUMPDEST SWAP2 SWAP1 DUP3 ADD DUP1 SWAP3 GT PUSH2 0xA1A JUMPI JUMP JUMPDEST PUSH4 0x4E487B71 PUSH1 0xE0 SHL PUSH1 0x0 MSTORE PUSH1 0x11 PUSH1 0x4 MSTORE PUSH1 0x24 PUSH1 0x0 REVERT JUMPDEST PUSH1 0x2 PUSH1 0x1 SLOAD EQ PUSH2 0xA41 JUMPI PUSH1 0x2 PUSH1 0x1 SSTORE JUMP JUMPDEST PUSH1 0x40 MLOAD PUSH4 0x3EE5AEB5 PUSH1 0xE0 SHL DUP2 MSTORE PUSH1 0x4 SWAP1 REVERT JUMPDEST SWAP2 SWAP1 DUP3 SUB SWAP2 DUP3 GT PUSH2 0xA1A JUMPI JUMP JUMPDEST DUP2 DUP2 MUL SWAP3 SWAP2 DUP2 ISZERO SWAP2 DUP5 DIV EQ OR ISZERO PUSH2 0xA1A JUMPI JUMP JUMPDEST PUSH1 0x1 PUSH1 0x1 PUSH1 0xA0 SHL SUB AND PUSH1 0x0 SWAP1 DUP2 MSTORE PUSH1 0x4 PUSH1 0x20 MSTORE PUSH1 0x40 SWAP1 KECCAK256 DUP1 SLOAD DUP1 PUSH2 0xA9B JUMPI JUMPDEST POP PUSH1 0x2 TIMESTAMP SWAP2 ADD SSTORE JUMP JUMPDEST PUSH2 0xABE PUSH2 0x23B PUSH8 0xDE0B6B3A7640000 SWAP3 PUSH2 0xAB9 PUSH1 0x2 DUP7 ADD SLOAD TIMESTAMP PUSH2 0xA53 JUMP JUMPDEST PUSH2 0xA60 JUMP JUMPDEST DIV PUSH2 0xACE PUSH1 0x1 DUP4 ADD SWAP2 DUP3 SLOAD PUSH2 0xA0D JUMP JUMPDEST SWAP1 SSTORE CODESIZE PUSH2 0xA92 JUMP JUMPDEST ISZERO PUSH2 0xADD JUMPI JUMP JUMPDEST PUSH1 0x40 MLOAD PUSH3 0x461BCD PUSH1 0xE5 SHL DUP2 MSTORE PUSH1 0x20 PUSH1 0x4 DUP3 ADD MSTORE PUSH1 0x16 PUSH1 0x24 DUP3 ADD MSTORE PUSH22 0x14995DD85C99081D1C985B9CD9995C8819985A5B1959 PUSH1 0x52 SHL PUSH1 0x44 DUP3 ADD MSTORE PUSH1 0x64 SWAP1 REVERT JUMPDEST PUSH1 0x1 DUP1 PUSH1 0xA0 SHL SUB AND PUSH1 0x0 MSTORE PUSH1 0x4 PUSH1 0x20 MSTORE PUSH1 0x40 PUSH1 0x0 KECCAK256 PUSH1 0x40 MLOAD SWAP1 PUSH2 0xB3D DUP3 PUSH2 0x99C JUMP JUMPDEST DUP1 SLOAD DUP1 DUP4 MSTORE PUSH1 0x1 DUP3 ADD SLOAD PUSH1 0x2 PUSH1 0x20 DUP6 ADD SWAP4 DUP3 DUP6 MSTORE ADD SLOAD SWAP2 DUP3 PUSH1 0x40 DUP7 ADD MSTORE ISZERO PUSH2 0xB90 JUMPI POP PUSH2 0xB85 PUSH2 0x23B PUSH2 0xB8D SWAP5 PUSH2 0xB7D PUSH8 0xDE0B6B3A7640000 SWAP5 TIMESTAMP PUSH2 0xA53 JUMP JUMPDEST SWAP1 MLOAD SWAP1 PUSH2 0xA60 JUMP JUMPDEST DIV SWAP1 MLOAD PUSH2 0xA0D JUMP JUMPDEST SWAP1 JUMP JUMPDEST SWAP3 POP POP POP SWAP1 JUMP INVALID LOG2 PUSH5 0x6970667358 0x22 SLT KECCAK256 0x2B 0xBF RETURNDATACOPY 0xD3 0xBE 0xDB 0xA8 0xDF DUP14 SWAP2 DUP6 NUMBER 0xB3 0xE0 SIGNEXTEND 0x4F 0xCE 0xDF SMOD 0xB0 BYTE DUP7 PUSH16 0x7CD79E48CF83C3D3A964736F6C634300 ADDMOD EQ STOP CALLER "},"methodIdentifiers":{"balanceOf(address)":"70a08231","claimReward()":"b88a802f","earned(address)":"008cc262","getUserStakeInfo(address)":"c32d3ae2","owner()":"8da5cb5b","renounceOwnership()":"715018a6","rewardRate()":"7b0a47ee","rewardToken()":"f7c618c1","stakeTokens(uint256)":"7547c7a3","stakes(address)":"16934fc4","stakingToken()":"72f702f3","totalStaked()":"817b1cd2","transferOwnership(address)":"f2fde38b","unstakeTokens(uint256)":"608e4dd0","updateRewardRate(uint256)":"9ef3a261"}}}}}