{
  "_format": "hh-sol-artifact-1",
  "contractName": "ShareCoinStaking",
  "sourceName": "contracts/ShareCoinStaking.sol",
  "abi": [
    {
      "inputs": [
        {
          "internalType": "address",
          "name": "_stakingToken",
          "type": "address"
        },
        {
          "internalType": "address",
          "name": "_rewardToken",
          "type": "address"
        },
        {
          "internalType": "uint256",
          "name": "_rewardRate",
          "type": "uint256"
        }
      ],
      "stateMutability": "nonpayable",
      "type": "constructor"
    },
    {
      "inputs": [
        {
          "internalType": "address",
          "name": "owner",
          "type": "address"
        }
      ],
      "name": "OwnableInvalidOwner",
      "type": "error"
    },
    {
      "inputs": [
        {
          "internalType": "address",
          "name": "account",
          "type": "address"
        }
      ],
      "name": "OwnableUnauthorizedAccount",
      "type": "error"
    },
    {
      "inputs": [],
      "name": "ReentrancyGuardReentrantCall",
      "type": "error"
    },
    {
      "anonymous": false,
      "inputs": [
        {
          "indexed": true,
          "internalType": "address",
          "name": "previousOwner",
          "type": "address"
        },
        {
          "indexed": true,
          "internalType": "address",
          "name": "newOwner",
          "type": "address"
        }
      ],
      "name": "OwnershipTransferred",
      "type": "event"
    },
    {
      "anonymous": false,
      "inputs": [
        {
          "indexed": true,
          "internalType": "address",
          "name": "user",
          "type": "address"
        },
        {
          "indexed": false,
          "internalType": "uint256",
          "name": "reward",
          "type": "uint256"
        }
      ],
      "name": "RewardClaimed",
      "type": "event"
    },
    {
      "anonymous": false,
      "inputs": [
        {
          "indexed": false,
          "internalType": "uint256",
          "name": "newRewardRate",
          "type": "uint256"
        }
      ],
      "name": "RewardRateUpdated",
      "type": "event"
    },
    {
      "anonymous": false,
      "inputs": [
        {
          "indexed": true,
          "internalType": "address",
          "name": "user",
          "type": "address"
        },
        {
          "indexed": false,
          "internalType": "uint256",
          "name": "amount",
          "type": "uint256"
        }
      ],
      "name": "Staked",
      "type": "event"
    },
    {
      "anonymous": false,
      "inputs": [
        {
          "indexed": true,
          "internalType": "address",
          "name": "user",
          "type": "address"
        },
        {
          "indexed": false,
          "internalType": "uint256",
          "name": "amount",
          "type": "uint256"
        },
        {
          "indexed": false,
          "internalType": "uint256",
          "name": "reward",
          "type": "uint256"
        }
      ],
      "name": "Unstaked",
      "type": "event"
    },
    {
      "inputs": [
        {
          "internalType": "address",
          "name": "user",
          "type": "address"
        }
      ],
      "name": "balanceOf",
      "outputs": [
        {
          "internalType": "uint256",
          "name": "",
          "type": "uint256"
        }
      ],
      "stateMutability": "view",
      "type": "function"
    },
    {
      "inputs": [],
      "name": "claimReward",
      "outputs": [],
      "stateMutability": "nonpayable",
      "type": "function"
    },
    {
      "inputs": [
        {
          "internalType": "address",
          "name": "user",
          "type": "address"
        }
      ],
      "name": "earned",
      "outputs": [
        {
          "internalType": "uint256",
          "name": "",
          "type": "uint256"
        }
      ],
      "stateMutability": "view",
      "type": "function"
    },
    {
      "inputs": [
        {
          "internalType": "address",
          "name": "user",
          "type": "address"
        }
      ],
      "name": "getUserStakeInfo",
      "outputs": [
        {
          "internalType": "uint256",
          "name": "staked",
          "type": "uint256"
        },
        {
          "internalType": "uint256",
          "name": "pendingRewards",
          "type": "uint256"
        }
      ],
      "stateMutability": "view",
      "type": "function"
    },
    {
      "inputs": [],
      "name": "owner",
      "outputs": [
        {
          "internalType": "address",
          "name": "",
          "type": "address"
        }
      ],
      "stateMutability": "view",
      "type": "function"
    },
    {
      "inputs": [],
      "name": "renounceOwnership",
      "outputs": [],
      "stateMutability": "nonpayable",
      "type": "function"
    },
    {
      "inputs": [],
      "name": "rewardRate",
      "outputs": [
        {
          "internalType": "uint256",
          "name": "",
          "type": "uint256"
        }
      ],
      "stateMutability": "view",
      "type": "function"
    },
    {
      "inputs": [],
      "name": "rewardToken",
      "outputs": [
        {
          "internalType": "contract ERC20",
          "name": "",
          "type": "address"
        }
      ],
      "stateMutability": "view",
      "type": "function"
    },
    {
      "inputs": [
        {
          "internalType": "uint256",
          "name": "amount",
          "type": "uint256"
        }
      ],
      "name": "stakeTokens",
      "outputs": [],
      "stateMutability": "nonpayable",
      "type": "function"
    },
    {
      "inputs": [
        {
          "internalType": "address",
          "name": "",
          "type": "address"
        }
      ],
      "name": "stakes",
      "outputs": [
        {
          "internalType": "uint256",
          "name": "amount",
          "type": "uint256"
        },
        {
          "internalType": "uint256",
          "name": "rewardDebt",
          "type": "uint256"
        },
        {
          "internalType": "uint256",
          "name": "lastUpdate",
          "type": "uint256"
        }
      ],
      "stateMutability": "view",
      "type": "function"
    },
    {
      "inputs": [],
      "name": "stakingToken",
      "outputs": [
        {
          "internalType": "contract ERC20",
          "name": "",
          "type": "address"
        }
      ],
      "stateMutability": "view",
      "type": "function"
    },
    {
      "inputs": [],
      "name": "totalStaked",
      "outputs": [
        {
          "internalType": "uint256",
          "name": "",
          "type": "uint256"
        }
      ],
      "stateMutability": "view",
      "type": "function"
    },
    {
      "inputs": [
        {
          "internalType": "address",
          "name": "newOwner",
          "type": "address"
        }
      ],
      "name": "transferOwnership",
      "outputs": [],
      "stateMutability": "nonpayable",
      "type": "function"
    },
    {
      "inputs": [
        {
          "internalType": "uint256",
          "name": "amount",
          "type": "uint256"
        }
      ],
      "name": "unstakeTokens",
      "outputs": [],
      "stateMutability": "nonpayable",
      "type": "function"
    },
    {
      "inputs": [
        {
          "internalType": "uint256",
          "name": "_newRewardRate",
          "type": "uint256"
        }
      ],
      "name": "updateRewardRate",
      "outputs": [],
      "stateMutability": "nonpayable",
      "type": "function"
    }
  ],
  "bytecode": "0x60c0346101a757601f610da438819003918201601f191683019291906001600160401b038411838510176101ac5781606092849260409687528339810103126101a75761004b816101c2565b9082610059602083016101c2565b91015191331561018f5760008054336001600160a01b03198216811783558651946001600160a01b0394909385939192918416907f8be0079c531659141344cd1fd0a4f28419497f9722a3daafe3b4186f6b6457e09080a3600180551692831561014d5750169081156101095760805260a05260025551610bcd90816101d782396080518181816104a8015281816105f60152610753015260a05181818160da015281816102bc01526107b10152f35b835162461bcd60e51b815260206004820152601460248201527f496e76616c69642072657761726420746f6b656e0000000000000000000000006044820152606490fd5b62461bcd60e51b815260206004820152601560248201527f496e76616c6964207374616b696e6720746f6b656e00000000000000000000006044820152606490fd5b8351631e4fbdf760e01b815260006004820152602490fd5b600080fd5b634e487b7160e01b600052604160045260246000fd5b51906001600160a01b03821682036101a75756fe6040608081526004908136101561001557600080fd5b600091823560e01c9081628cc2621461093857816316934fc4146108e8578163608e4dd0146106bc57816370a0823114610682578163715018a61461062557816372f702f3146105e15781637547c7a3146104525781637b0a47ee14610433578163817b1cd2146104145781638da5cb5b146103ec5781639ef3a2611461039e578163b88a802f1461024c578163c32d3ae2146101a0578163f2fde38b1461010d575063f7c618c1146100c757600080fd5b34610109578160031936011261010957517f00000000000000000000000000000000000000000000000000000000000000006001600160a01b03168152602090f35b5080fd5b9190503461019c57602036600319011261019c576001600160a01b0382358181169391929084900361019857610141610970565b831561018257505082546001600160a01b0319811683178455167f8be0079c531659141344cd1fd0a4f28419497f9722a3daafe3b4186f6b6457e08380a380f35b51631e4fbdf760e01b8152908101849052602490fd5b8480fd5b8280fd5b839150346101095760203660031901126101095780356001600160a01b0381169081900361019c57825260205261020b8282209183516101df8161099c565b835491828252600260018601549560208401968752015490818784015292610217575b50519251610a0d565b82519182526020820152f35b670de0b6b3a764000091925061023b6102336102449242610a53565b845190610a60565b60025490610a60565b049085610202565b90503461019c578260031936011261019c57610266610a30565b61026f33610a73565b3383526020818152600183852001549182156103675733808652818352848620600101869055845163a9059cbb60e01b8152918201908152602081018490528290829081906040010381887f00000000000000000000000000000000000000000000000000000000000000006001600160a01b03165af190811561035d577f106f923f993c2149d49b4255ff723acafa1f2d94393f561d3eda32ae348f7241939491610322918791610330575b50610ad6565b519283523392a26001805580f35b6103509150843d8611610356575b61034881836109ce565b8101906109f0565b3861031c565b503d61033e565b84513d87823e3d90fd5b60649184519162461bcd60e51b835282015260136024820152724e6f207265776172647320746f20636c61696d60681b6044820152fd5b90503461019c57602036600319011261019c577f41d466ebd06fb97e7786086ac8b69b7eb7da798592036251291d34e9791cde019160209135906103e0610970565b8160025551908152a180f35b505034610109578160031936011261010957905490516001600160a01b039091168152602090f35b5050346101095781600319360112610109576020906003549051908152f35b5050346101095781600319360112610109576020906002549051908152f35b9190503461019c57602090816003193601126105dd57823592610473610a30565b831561059c5761048233610a73565b81516323b872dd60e01b81523382820152306024820152604481018590528381606481897f00000000000000000000000000000000000000000000000000000000000000006001600160a01b03165af1908115610592578691610575575b501561053c57907f9e71bc8eea02a63969f509818f2dafb9254532904319f9dbda79b67bd34a5f3d9291338652825280852061051d858254610a0d565b905561052b84600354610a0d565b600355519283523392a26001805580f35b82606492519162461bcd60e51b83528201526015602482015274151bdad95b881d1c985b9cd9995c8819985a5b1959605a1b6044820152fd5b61058c9150843d86116103565761034881836109ce565b386104e0565b83513d88823e3d90fd5b82606492519162461bcd60e51b8352820152601860248201527f43616e6e6f74207374616b65207a65726f20746f6b656e7300000000000000006044820152fd5b8380fd5b505034610109578160031936011261010957517f00000000000000000000000000000000000000000000000000000000000000006001600160a01b03168152602090f35b833461067f578060031936011261067f5761063e610970565b80546001600160a01b03198116825581906001600160a01b03167f8be0079c531659141344cd1fd0a4f28419497f9722a3daafe3b4186f6b6457e08280a380f35b80fd5b90503461019c57602036600319011261019c5780356001600160a01b038116908190036105dd579282916020948252845220549051908152f35b838334610109576020908160031936011261019c578335916106dc610a30565b338452848152818420838154106108a5576001906106f933610a73565b610704858254610a53565b815561071285600354610a53565b60035501805490859055825163a9059cbb60e01b80825233888301908152602081018790526001600160a01b0398939493929084908290819003604001818b7f00000000000000000000000000000000000000000000000000000000000000008e165af190811561089b57889161087e575b501561083c57845190815233918101918252602082018490529596829187919082908a90829060400103927f0000000000000000000000000000000000000000000000000000000000000000165af1948515610592577f7fc4727e062e336010f2c282598ef5f14facb3de68cf8195c2f23e1454b2b74e949561080d91889161081f5750610ad6565b82519485528401523392a26001805580f35b6108369150833d85116103565761034881836109ce565b8861031c565b5060649184519162461bcd60e51b8352820152601760248201527f556e7374616b65207472616e73666572206661696c65640000000000000000006044820152fd5b6108959150843d86116103565761034881836109ce565b89610784565b86513d8a823e3d90fd5b825162461bcd60e51b8152808701839052601a60248201527f496e73756666696369656e74207374616b656420616d6f756e740000000000006044820152606490fd5b90503461019c57602036600319011261019c5780356001600160a01b038116908190036105dd57928291606094825260205220805491600260018301549201549181519384526020840152820152f35b90503461019c57602036600319011261019c5735916001600160a01b038316830361067f5750610969602092610b1b565b9051908152f35b6000546001600160a01b0316330361098457565b60405163118cdaa760e01b8152336004820152602490fd5b6060810190811067ffffffffffffffff8211176109b857604052565b634e487b7160e01b600052604160045260246000fd5b90601f8019910116810190811067ffffffffffffffff8211176109b857604052565b90816020910312610a0857518015158103610a085790565b600080fd5b91908201809211610a1a57565b634e487b7160e01b600052601160045260246000fd5b600260015414610a41576002600155565b604051633ee5aeb560e01b8152600490fd5b91908203918211610a1a57565b81810292918115918404141715610a1a57565b6001600160a01b03166000908152600460205260409020805480610a9b575b50600242910155565b610abe61023b670de0b6b3a764000092610ab9600286015442610a53565b610a60565b04610ace60018301918254610a0d565b905538610a92565b15610add57565b60405162461bcd60e51b815260206004820152601660248201527514995dd85c99081d1c985b9cd9995c8819985a5b195960521b6044820152606490fd5b60018060a01b03166000526004602052604060002060405190610b3d8261099c565b805480835260018201546002602085019382855201549182604086015215610b905750610b8561023b610b8d94610b7d670de0b6b3a76400009442610a53565b905190610a60565b049051610a0d565b90565b925050509056fea26469706673582212202bbf3ed3bedba8df8d918543b3e00b4fcedf07b01a866f7cd79e48cf83c3d3a964736f6c63430008140033",
  "linkReferences": {},
  "deployedLinkReferences": {}
}